{
  "_format": "hh-sol-artifact-1",
  "contractName": "AssetGovernance",
  "sourceName": "contracts/AssetGovernance.sol",
  "abi": [
    {
      "inputs": [],
      "stateMutability": "nonpayable",
      "type": "constructor"
    },
    {
      "inputs": [],
      "name": "Empty",
      "type": "error"
    },
    {
      "anonymous": false,
      "inputs": [
        {
          "indexed": false,
          "internalType": "address",
          "name": "previousAdmin",
          "type": "address"
        },
        {
          "indexed": false,
          "internalType": "address",
          "name": "newAdmin",
          "type": "address"
        }
      ],
      "name": "AdminChanged",
      "type": "event"
    },
    {
      "anonymous": false,
      "inputs": [
        {
          "indexed": true,
          "internalType": "address",
          "name": "beacon",
          "type": "address"
        }
      ],
      "name": "BeaconUpgraded",
      "type": "event"
    },
    {
      "anonymous": false,
      "inputs": [],
      "name": "EIP712DomainChanged",
      "type": "event"
    },
    {
      "anonymous": false,
      "inputs": [
        {
          "indexed": false,
          "internalType": "uint8",
          "name": "version",
          "type": "uint8"
        }
      ],
      "name": "Initialized",
      "type": "event"
    },
    {
      "anonymous": false,
      "inputs": [
        {
          "indexed": false,
          "internalType": "uint256",
          "name": "proposalId",
          "type": "uint256"
        }
      ],
      "name": "ProposalCanceled",
      "type": "event"
    },
    {
      "anonymous": false,
      "inputs": [
        {
          "indexed": false,
          "internalType": "uint256",
          "name": "proposalId",
          "type": "uint256"
        },
        {
          "indexed": false,
          "internalType": "address",
          "name": "proposer",
          "type": "address"
        },
        {
          "indexed": false,
          "internalType": "address[]",
          "name": "targets",
          "type": "address[]"
        },
        {
          "indexed": false,
          "internalType": "uint256[]",
          "name": "values",
          "type": "uint256[]"
        },
        {
          "indexed": false,
          "internalType": "string[]",
          "name": "signatures",
          "type": "string[]"
        },
        {
          "indexed": false,
          "internalType": "bytes[]",
          "name": "calldatas",
          "type": "bytes[]"
        },
        {
          "indexed": false,
          "internalType": "uint256",
          "name": "voteStart",
          "type": "uint256"
        },
        {
          "indexed": false,
          "internalType": "uint256",
          "name": "voteEnd",
          "type": "uint256"
        },
        {
          "indexed": false,
          "internalType": "string",
          "name": "description",
          "type": "string"
        }
      ],
      "name": "ProposalCreated",
      "type": "event"
    },
    {
      "anonymous": false,
      "inputs": [
        {
          "indexed": false,
          "internalType": "uint256",
          "name": "proposalId",
          "type": "uint256"
        }
      ],
      "name": "ProposalExecuted",
      "type": "event"
    },
    {
      "anonymous": false,
      "inputs": [
        {
          "indexed": false,
          "internalType": "uint256",
          "name": "proposalId",
          "type": "uint256"
        },
        {
          "indexed": false,
          "internalType": "uint256",
          "name": "eta",
          "type": "uint256"
        }
      ],
      "name": "ProposalQueued",
      "type": "event"
    },
    {
      "anonymous": false,
      "inputs": [
        {
          "indexed": false,
          "internalType": "uint256",
          "name": "oldProposalThreshold",
          "type": "uint256"
        },
        {
          "indexed": false,
          "internalType": "uint256",
          "name": "newProposalThreshold",
          "type": "uint256"
        }
      ],
      "name": "ProposalThresholdSet",
      "type": "event"
    },
    {
      "anonymous": false,
      "inputs": [
        {
          "indexed": false,
          "internalType": "uint256",
          "name": "oldThreshold",
          "type": "uint256"
        },
        {
          "indexed": false,
          "internalType": "uint256",
          "name": "newThreshold",
          "type": "uint256"
        }
      ],
      "name": "ProposalThresholdUpdated",
      "type": "event"
    },
    {
      "anonymous": false,
      "inputs": [
        {
          "indexed": false,
          "internalType": "uint256",
          "name": "oldQuorumNumerator",
          "type": "uint256"
        },
        {
          "indexed": false,
          "internalType": "uint256",
          "name": "newQuorumNumerator",
          "type": "uint256"
        }
      ],
      "name": "QuorumNumeratorUpdated",
      "type": "event"
    },
    {
      "anonymous": false,
      "inputs": [
        {
          "indexed": true,
          "internalType": "bytes32",
          "name": "role",
          "type": "bytes32"
        },
        {
          "indexed": true,
          "internalType": "bytes32",
          "name": "previousAdminRole",
          "type": "bytes32"
        },
        {
          "indexed": true,
          "internalType": "bytes32",
          "name": "newAdminRole",
          "type": "bytes32"
        }
      ],
      "name": "RoleAdminChanged",
      "type": "event"
    },
    {
      "anonymous": false,
      "inputs": [
        {
          "indexed": true,
          "internalType": "bytes32",
          "name": "role",
          "type": "bytes32"
        },
        {
          "indexed": true,
          "internalType": "address",
          "name": "account",
          "type": "address"
        },
        {
          "indexed": true,
          "internalType": "address",
          "name": "sender",
          "type": "address"
        }
      ],
      "name": "RoleGranted",
      "type": "event"
    },
    {
      "anonymous": false,
      "inputs": [
        {
          "indexed": true,
          "internalType": "bytes32",
          "name": "role",
          "type": "bytes32"
        },
        {
          "indexed": true,
          "internalType": "address",
          "name": "account",
          "type": "address"
        },
        {
          "indexed": true,
          "internalType": "address",
          "name": "sender",
          "type": "address"
        }
      ],
      "name": "RoleRevoked",
      "type": "event"
    },
    {
      "anonymous": false,
      "inputs": [
        {
          "indexed": false,
          "internalType": "address",
          "name": "oldTimelock",
          "type": "address"
        },
        {
          "indexed": false,
          "internalType": "address",
          "name": "newTimelock",
          "type": "address"
        }
      ],
      "name": "TimelockChange",
      "type": "event"
    },
    {
      "anonymous": false,
      "inputs": [
        {
          "indexed": true,
          "internalType": "address",
          "name": "implementation",
          "type": "address"
        }
      ],
      "name": "Upgraded",
      "type": "event"
    },
    {
      "anonymous": false,
      "inputs": [
        {
          "indexed": true,
          "internalType": "address",
          "name": "voter",
          "type": "address"
        },
        {
          "indexed": false,
          "internalType": "uint256",
          "name": "proposalId",
          "type": "uint256"
        },
        {
          "indexed": false,
          "internalType": "uint8",
          "name": "support",
          "type": "uint8"
        },
        {
          "indexed": false,
          "internalType": "uint256",
          "name": "weight",
          "type": "uint256"
        },
        {
          "indexed": false,
          "internalType": "string",
          "name": "reason",
          "type": "string"
        }
      ],
      "name": "VoteCast",
      "type": "event"
    },
    {
      "anonymous": false,
      "inputs": [
        {
          "indexed": true,
          "internalType": "address",
          "name": "voter",
          "type": "address"
        },
        {
          "indexed": false,
          "internalType": "uint256",
          "name": "proposalId",
          "type": "uint256"
        },
        {
          "indexed": false,
          "internalType": "uint8",
          "name": "support",
          "type": "uint8"
        },
        {
          "indexed": false,
          "internalType": "uint256",
          "name": "weight",
          "type": "uint256"
        },
        {
          "indexed": false,
          "internalType": "string",
          "name": "reason",
          "type": "string"
        },
        {
          "indexed": false,
          "internalType": "bytes",
          "name": "params",
          "type": "bytes"
        }
      ],
      "name": "VoteCastWithParams",
      "type": "event"
    },
    {
      "anonymous": false,
      "inputs": [
        {
          "indexed": false,
          "internalType": "uint256",
          "name": "oldVotingDelay",
          "type": "uint256"
        },
        {
          "indexed": false,
          "internalType": "uint256",
          "name": "newVotingDelay",
          "type": "uint256"
        }
      ],
      "name": "VotingDelaySet",
      "type": "event"
    },
    {
      "anonymous": false,
      "inputs": [
        {
          "indexed": false,
          "internalType": "uint256",
          "name": "oldDelay",
          "type": "uint256"
        },
        {
          "indexed": false,
          "internalType": "uint256",
          "name": "newDelay",
          "type": "uint256"
        }
      ],
      "name": "VotingDelayUpdated",
      "type": "event"
    },
    {
      "anonymous": false,
      "inputs": [
        {
          "indexed": false,
          "internalType": "uint256",
          "name": "oldVotingPeriod",
          "type": "uint256"
        },
        {
          "indexed": false,
          "internalType": "uint256",
          "name": "newVotingPeriod",
          "type": "uint256"
        }
      ],
      "name": "VotingPeriodSet",
      "type": "event"
    },
    {
      "anonymous": false,
      "inputs": [
        {
          "indexed": false,
          "internalType": "uint256",
          "name": "oldPeriod",
          "type": "uint256"
        },
        {
          "indexed": false,
          "internalType": "uint256",
          "name": "newPeriod",
          "type": "uint256"
        }
      ],
      "name": "VotingPeriodUpdated",
      "type": "event"
    },
    {
      "inputs": [],
      "name": "BALLOT_TYPEHASH",
      "outputs": [
        {
          "internalType": "bytes32",
          "name": "",
          "type": "bytes32"
        }
      ],
      "stateMutability": "view",
      "type": "function"
    },
    {
      "inputs": [],
      "name": "CLOCK_MODE",
      "outputs": [
        {
          "internalType": "string",
          "name": "",
          "type": "string"
        }
      ],
      "stateMutability": "view",
      "type": "function"
    },
    {
      "inputs": [],
      "name": "COUNTING_MODE",
      "outputs": [
        {
          "internalType": "string",
          "name": "",
          "type": "string"
        }
      ],
      "stateMutability": "pure",
      "type": "function"
    },
    {
      "inputs": [],
      "name": "DEFAULT_ADMIN_ROLE",
      "outputs": [
        {
          "internalType": "bytes32",
          "name": "",
          "type": "bytes32"
        }
      ],
      "stateMutability": "view",
      "type": "function"
    },
    {
      "inputs": [],
      "name": "EXTENDED_BALLOT_TYPEHASH",
      "outputs": [
        {
          "internalType": "bytes32",
          "name": "",
          "type": "bytes32"
        }
      ],
      "stateMutability": "view",
      "type": "function"
    },
    {
      "inputs": [],
      "name": "UPGRADER_ROLE",
      "outputs": [
        {
          "internalType": "bytes32",
          "name": "",
          "type": "bytes32"
        }
      ],
      "stateMutability": "view",
      "type": "function"
    },
    {
      "inputs": [
        {
          "internalType": "address[]",
          "name": "targets",
          "type": "address[]"
        },
        {
          "internalType": "uint256[]",
          "name": "values",
          "type": "uint256[]"
        },
        {
          "internalType": "bytes[]",
          "name": "calldatas",
          "type": "bytes[]"
        },
        {
          "internalType": "bytes32",
          "name": "descriptionHash",
          "type": "bytes32"
        }
      ],
      "name": "cancel",
      "outputs": [
        {
          "internalType": "uint256",
          "name": "",
          "type": "uint256"
        }
      ],
      "stateMutability": "nonpayable",
      "type": "function"
    },
    {
      "inputs": [
        {
          "internalType": "uint256",
          "name": "proposalId",
          "type": "uint256"
        },
        {
          "internalType": "uint8",
          "name": "support",
          "type": "uint8"
        }
      ],
      "name": "castVote",
      "outputs": [
        {
          "internalType": "uint256",
          "name": "",
          "type": "uint256"
        }
      ],
      "stateMutability": "nonpayable",
      "type": "function"
    },
    {
      "inputs": [
        {
          "internalType": "uint256",
          "name": "proposalId",
          "type": "uint256"
        },
        {
          "internalType": "uint8",
          "name": "support",
          "type": "uint8"
        },
        {
          "internalType": "uint8",
          "name": "v",
          "type": "uint8"
        },
        {
          "internalType": "bytes32",
          "name": "r",
          "type": "bytes32"
        },
        {
          "internalType": "bytes32",
          "name": "s",
          "type": "bytes32"
        }
      ],
      "name": "castVoteBySig",
      "outputs": [
        {
          "internalType": "uint256",
          "name": "",
          "type": "uint256"
        }
      ],
      "stateMutability": "nonpayable",
      "type": "function"
    },
    {
      "inputs": [
        {
          "internalType": "uint256",
          "name": "proposalId",
          "type": "uint256"
        },
        {
          "internalType": "uint8",
          "name": "support",
          "type": "uint8"
        },
        {
          "internalType": "string",
          "name": "reason",
          "type": "string"
        }
      ],
      "name": "castVoteWithReason",
      "outputs": [
        {
          "internalType": "uint256",
          "name": "",
          "type": "uint256"
        }
      ],
      "stateMutability": "nonpayable",
      "type": "function"
    },
    {
      "inputs": [
        {
          "internalType": "uint256",
          "name": "proposalId",
          "type": "uint256"
        },
        {
          "internalType": "uint8",
          "name": "support",
          "type": "uint8"
        },
        {
          "internalType": "string",
          "name": "reason",
          "type": "string"
        },
        {
          "internalType": "bytes",
          "name": "params",
          "type": "bytes"
        }
      ],
      "name": "castVoteWithReasonAndParams",
      "outputs": [
        {
          "internalType": "uint256",
          "name": "",
          "type": "uint256"
        }
      ],
      "stateMutability": "nonpayable",
      "type": "function"
    },
    {
      "inputs": [
        {
          "internalType": "uint256",
          "name": "proposalId",
          "type": "uint256"
        },
        {
          "internalType": "uint8",
          "name": "support",
          "type": "uint8"
        },
        {
          "internalType": "string",
          "name": "reason",
          "type": "string"
        },
        {
          "internalType": "bytes",
          "name": "params",
          "type": "bytes"
        },
        {
          "internalType": "uint8",
          "name": "v",
          "type": "uint8"
        },
        {
          "internalType": "bytes32",
          "name": "r",
          "type": "bytes32"
        },
        {
          "internalType": "bytes32",
          "name": "s",
          "type": "bytes32"
        }
      ],
      "name": "castVoteWithReasonAndParamsBySig",
      "outputs": [
        {
          "internalType": "uint256",
          "name": "",
          "type": "uint256"
        }
      ],
      "stateMutability": "nonpayable",
      "type": "function"
    },
    {
      "inputs": [],
      "name": "clock",
      "outputs": [
        {
          "internalType": "uint48",
          "name": "",
          "type": "uint48"
        }
      ],
      "stateMutability": "view",
      "type": "function"
    },
    {
      "inputs": [],
      "name": "eip712Domain",
      "outputs": [
        {
          "internalType": "bytes1",
          "name": "fields",
          "type": "bytes1"
        },
        {
          "internalType": "string",
          "name": "name",
          "type": "string"
        },
        {
          "internalType": "string",
          "name": "version",
          "type": "string"
        },
        {
          "internalType": "uint256",
          "name": "chainId",
          "type": "uint256"
        },
        {
          "internalType": "address",
          "name": "verifyingContract",
          "type": "address"
        },
        {
          "internalType": "bytes32",
          "name": "salt",
          "type": "bytes32"
        },
        {
          "internalType": "uint256[]",
          "name": "extensions",
          "type": "uint256[]"
        }
      ],
      "stateMutability": "view",
      "type": "function"
    },
    {
      "inputs": [
        {
          "internalType": "address[]",
          "name": "targets",
          "type": "address[]"
        },
        {
          "internalType": "uint256[]",
          "name": "values",
          "type": "uint256[]"
        },
        {
          "internalType": "bytes[]",
          "name": "calldatas",
          "type": "bytes[]"
        },
        {
          "internalType": "bytes32",
          "name": "descriptionHash",
          "type": "bytes32"
        }
      ],
      "name": "execute",
      "outputs": [
        {
          "internalType": "uint256",
          "name": "",
          "type": "uint256"
        }
      ],
      "stateMutability": "payable",
      "type": "function"
    },
    {
      "inputs": [
        {
          "internalType": "bytes32",
          "name": "role",
          "type": "bytes32"
        }
      ],
      "name": "getRoleAdmin",
      "outputs": [
        {
          "internalType": "bytes32",
          "name": "",
          "type": "bytes32"
        }
      ],
      "stateMutability": "view",
      "type": "function"
    },
    {
      "inputs": [
        {
          "internalType": "address",
          "name": "account",
          "type": "address"
        },
        {
          "internalType": "uint256",
          "name": "timepoint",
          "type": "uint256"
        }
      ],
      "name": "getVotes",
      "outputs": [
        {
          "internalType": "uint256",
          "name": "",
          "type": "uint256"
        }
      ],
      "stateMutability": "view",
      "type": "function"
    },
    {
      "inputs": [
        {
          "internalType": "address",
          "name": "account",
          "type": "address"
        },
        {
          "internalType": "uint256",
          "name": "timepoint",
          "type": "uint256"
        },
        {
          "internalType": "bytes",
          "name": "params",
          "type": "bytes"
        }
      ],
      "name": "getVotesWithParams",
      "outputs": [
        {
          "internalType": "uint256",
          "name": "",
          "type": "uint256"
        }
      ],
      "stateMutability": "view",
      "type": "function"
    },
    {
      "inputs": [
        {
          "internalType": "bytes32",
          "name": "role",
          "type": "bytes32"
        },
        {
          "internalType": "address",
          "name": "account",
          "type": "address"
        }
      ],
      "name": "grantRole",
      "outputs": [],
      "stateMutability": "nonpayable",
      "type": "function"
    },
    {
      "inputs": [
        {
          "internalType": "bytes32",
          "name": "role",
          "type": "bytes32"
        },
        {
          "internalType": "address",
          "name": "account",
          "type": "address"
        }
      ],
      "name": "hasRole",
      "outputs": [
        {
          "internalType": "bool",
          "name": "",
          "type": "bool"
        }
      ],
      "stateMutability": "view",
      "type": "function"
    },
    {
      "inputs": [
        {
          "internalType": "uint256",
          "name": "proposalId",
          "type": "uint256"
        },
        {
          "internalType": "address",
          "name": "account",
          "type": "address"
        }
      ],
      "name": "hasVoted",
      "outputs": [
        {
          "internalType": "bool",
          "name": "",
          "type": "bool"
        }
      ],
      "stateMutability": "view",
      "type": "function"
    },
    {
      "inputs": [
        {
          "internalType": "address[]",
          "name": "targets",
          "type": "address[]"
        },
        {
          "internalType": "uint256[]",
          "name": "values",
          "type": "uint256[]"
        },
        {
          "internalType": "bytes[]",
          "name": "calldatas",
          "type": "bytes[]"
        },
        {
          "internalType": "bytes32",
          "name": "descriptionHash",
          "type": "bytes32"
        }
      ],
      "name": "hashProposal",
      "outputs": [
        {
          "internalType": "uint256",
          "name": "",
          "type": "uint256"
        }
      ],
      "stateMutability": "pure",
      "type": "function"
    },
    {
      "inputs": [
        {
          "internalType": "contract IVotesUpgradeable",
          "name": "_token",
          "type": "address"
        },
        {
          "internalType": "contract TimelockControllerUpgradeable",
          "name": "_timelock",
          "type": "address"
        },
        {
          "internalType": "uint48",
          "name": "_votingDelay",
          "type": "uint48"
        },
        {
          "internalType": "uint32",
          "name": "_votingPeriod",
          "type": "uint32"
        },
        {
          "internalType": "uint256",
          "name": "_proposalThreshold",
          "type": "uint256"
        },
        {
          "internalType": "uint256",
          "name": "_quorumPercentage",
          "type": "uint256"
        }
      ],
      "name": "initialize",
      "outputs": [],
      "stateMutability": "nonpayable",
      "type": "function"
    },
    {
      "inputs": [],
      "name": "name",
      "outputs": [
        {
          "internalType": "string",
          "name": "",
          "type": "string"
        }
      ],
      "stateMutability": "view",
      "type": "function"
    },
    {
      "inputs": [
        {
          "internalType": "address",
          "name": "",
          "type": "address"
        },
        {
          "internalType": "address",
          "name": "",
          "type": "address"
        },
        {
          "internalType": "uint256[]",
          "name": "",
          "type": "uint256[]"
        },
        {
          "internalType": "uint256[]",
          "name": "",
          "type": "uint256[]"
        },
        {
          "internalType": "bytes",
          "name": "",
          "type": "bytes"
        }
      ],
      "name": "onERC1155BatchReceived",
      "outputs": [
        {
          "internalType": "bytes4",
          "name": "",
          "type": "bytes4"
        }
      ],
      "stateMutability": "nonpayable",
      "type": "function"
    },
    {
      "inputs": [
        {
          "internalType": "address",
          "name": "",
          "type": "address"
        },
        {
          "internalType": "address",
          "name": "",
          "type": "address"
        },
        {
          "internalType": "uint256",
          "name": "",
          "type": "uint256"
        },
        {
          "internalType": "uint256",
          "name": "",
          "type": "uint256"
        },
        {
          "internalType": "bytes",
          "name": "",
          "type": "bytes"
        }
      ],
      "name": "onERC1155Received",
      "outputs": [
        {
          "internalType": "bytes4",
          "name": "",
          "type": "bytes4"
        }
      ],
      "stateMutability": "nonpayable",
      "type": "function"
    },
    {
      "inputs": [
        {
          "internalType": "address",
          "name": "",
          "type": "address"
        },
        {
          "internalType": "address",
          "name": "",
          "type": "address"
        },
        {
          "internalType": "uint256",
          "name": "",
          "type": "uint256"
        },
        {
          "internalType": "bytes",
          "name": "",
          "type": "bytes"
        }
      ],
      "name": "onERC721Received",
      "outputs": [
        {
          "internalType": "bytes4",
          "name": "",
          "type": "bytes4"
        }
      ],
      "stateMutability": "nonpayable",
      "type": "function"
    },
    {
      "inputs": [
        {
          "internalType": "uint256",
          "name": "proposalId",
          "type": "uint256"
        }
      ],
      "name": "proposalDeadline",
      "outputs": [
        {
          "internalType": "uint256",
          "name": "",
          "type": "uint256"
        }
      ],
      "stateMutability": "view",
      "type": "function"
    },
    {
      "inputs": [
        {
          "internalType": "uint256",
          "name": "proposalId",
          "type": "uint256"
        }
      ],
      "name": "proposalEta",
      "outputs": [
        {
          "internalType": "uint256",
          "name": "",
          "type": "uint256"
        }
      ],
      "stateMutability": "view",
      "type": "function"
    },
    {
      "inputs": [
        {
          "internalType": "uint256",
          "name": "proposalId",
          "type": "uint256"
        }
      ],
      "name": "proposalProposer",
      "outputs": [
        {
          "internalType": "address",
          "name": "",
          "type": "address"
        }
      ],
      "stateMutability": "view",
      "type": "function"
    },
    {
      "inputs": [
        {
          "internalType": "uint256",
          "name": "proposalId",
          "type": "uint256"
        }
      ],
      "name": "proposalSnapshot",
      "outputs": [
        {
          "internalType": "uint256",
          "name": "",
          "type": "uint256"
        }
      ],
      "stateMutability": "view",
      "type": "function"
    },
    {
      "inputs": [],
      "name": "proposalThreshold",
      "outputs": [
        {
          "internalType": "uint256",
          "name": "",
          "type": "uint256"
        }
      ],
      "stateMutability": "view",
      "type": "function"
    },
    {
      "inputs": [
        {
          "internalType": "uint256",
          "name": "proposalId",
          "type": "uint256"
        }
      ],
      "name": "proposalVotes",
      "outputs": [
        {
          "internalType": "uint256",
          "name": "againstVotes",
          "type": "uint256"
        },
        {
          "internalType": "uint256",
          "name": "forVotes",
          "type": "uint256"
        },
        {
          "internalType": "uint256",
          "name": "abstainVotes",
          "type": "uint256"
        }
      ],
      "stateMutability": "view",
      "type": "function"
    },
    {
      "inputs": [
        {
          "internalType": "address[]",
          "name": "targets",
          "type": "address[]"
        },
        {
          "internalType": "uint256[]",
          "name": "values",
          "type": "uint256[]"
        },
        {
          "internalType": "bytes[]",
          "name": "calldatas",
          "type": "bytes[]"
        },
        {
          "internalType": "string",
          "name": "description",
          "type": "string"
        }
      ],
      "name": "propose",
      "outputs": [
        {
          "internalType": "uint256",
          "name": "",
          "type": "uint256"
        }
      ],
      "stateMutability": "nonpayable",
      "type": "function"
    },
    {
      "inputs": [],
      "name": "proxiableUUID",
      "outputs": [
        {
          "internalType": "bytes32",
          "name": "",
          "type": "bytes32"
        }
      ],
      "stateMutability": "view",
      "type": "function"
    },
    {
      "inputs": [
        {
          "internalType": "address[]",
          "name": "targets",
          "type": "address[]"
        },
        {
          "internalType": "uint256[]",
          "name": "values",
          "type": "uint256[]"
        },
        {
          "internalType": "bytes[]",
          "name": "calldatas",
          "type": "bytes[]"
        },
        {
          "internalType": "bytes32",
          "name": "descriptionHash",
          "type": "bytes32"
        }
      ],
      "name": "queue",
      "outputs": [
        {
          "internalType": "uint256",
          "name": "",
          "type": "uint256"
        }
      ],
      "stateMutability": "nonpayable",
      "type": "function"
    },
    {
      "inputs": [
        {
          "internalType": "uint256",
          "name": "blockNumber",
          "type": "uint256"
        }
      ],
      "name": "quorum",
      "outputs": [
        {
          "internalType": "uint256",
          "name": "",
          "type": "uint256"
        }
      ],
      "stateMutability": "view",
      "type": "function"
    },
    {
      "inputs": [],
      "name": "quorumDenominator",
      "outputs": [
        {
          "internalType": "uint256",
          "name": "",
          "type": "uint256"
        }
      ],
      "stateMutability": "view",
      "type": "function"
    },
    {
      "inputs": [
        {
          "internalType": "uint256",
          "name": "timepoint",
          "type": "uint256"
        }
      ],
      "name": "quorumNumerator",
      "outputs": [
        {
          "internalType": "uint256",
          "name": "",
          "type": "uint256"
        }
      ],
      "stateMutability": "view",
      "type": "function"
    },
    {
      "inputs": [],
      "name": "quorumNumerator",
      "outputs": [
        {
          "internalType": "uint256",
          "name": "",
          "type": "uint256"
        }
      ],
      "stateMutability": "view",
      "type": "function"
    },
    {
      "inputs": [
        {
          "internalType": "address",
          "name": "target",
          "type": "address"
        },
        {
          "internalType": "uint256",
          "name": "value",
          "type": "uint256"
        },
        {
          "internalType": "bytes",
          "name": "data",
          "type": "bytes"
        }
      ],
      "name": "relay",
      "outputs": [],
      "stateMutability": "payable",
      "type": "function"
    },
    {
      "inputs": [
        {
          "internalType": "bytes32",
          "name": "role",
          "type": "bytes32"
        },
        {
          "internalType": "address",
          "name": "account",
          "type": "address"
        }
      ],
      "name": "renounceRole",
      "outputs": [],
      "stateMutability": "nonpayable",
      "type": "function"
    },
    {
      "inputs": [
        {
          "internalType": "bytes32",
          "name": "role",
          "type": "bytes32"
        },
        {
          "internalType": "address",
          "name": "account",
          "type": "address"
        }
      ],
      "name": "revokeRole",
      "outputs": [],
      "stateMutability": "nonpayable",
      "type": "function"
    },
    {
      "inputs": [
        {
          "internalType": "uint256",
          "name": "newProposalThreshold",
          "type": "uint256"
        }
      ],
      "name": "setProposalThreshold",
      "outputs": [],
      "stateMutability": "nonpayable",
      "type": "function"
    },
    {
      "inputs": [
        {
          "internalType": "uint256",
          "name": "newVotingDelay",
          "type": "uint256"
        }
      ],
      "name": "setVotingDelay",
      "outputs": [],
      "stateMutability": "nonpayable",
      "type": "function"
    },
    {
      "inputs": [
        {
          "internalType": "uint256",
          "name": "newVotingPeriod",
          "type": "uint256"
        }
      ],
      "name": "setVotingPeriod",
      "outputs": [],
      "stateMutability": "nonpayable",
      "type": "function"
    },
    {
      "inputs": [
        {
          "internalType": "uint256",
          "name": "proposalId",
          "type": "uint256"
        }
      ],
      "name": "state",
      "outputs": [
        {
          "internalType": "enum IGovernorUpgradeable.ProposalState",
          "name": "",
          "type": "uint8"
        }
      ],
      "stateMutability": "view",
      "type": "function"
    },
    {
      "inputs": [
        {
          "internalType": "bytes4",
          "name": "interfaceId",
          "type": "bytes4"
        }
      ],
      "name": "supportsInterface",
      "outputs": [
        {
          "internalType": "bool",
          "name": "",
          "type": "bool"
        }
      ],
      "stateMutability": "view",
      "type": "function"
    },
    {
      "inputs": [],
      "name": "timelock",
      "outputs": [
        {
          "internalType": "address",
          "name": "",
          "type": "address"
        }
      ],
      "stateMutability": "view",
      "type": "function"
    },
    {
      "inputs": [],
      "name": "token",
      "outputs": [
        {
          "internalType": "contract IERC5805Upgradeable",
          "name": "",
          "type": "address"
        }
      ],
      "stateMutability": "view",
      "type": "function"
    },
    {
      "inputs": [
        {
          "internalType": "uint256",
          "name": "newQuorumNumerator",
          "type": "uint256"
        }
      ],
      "name": "updateQuorumNumerator",
      "outputs": [],
      "stateMutability": "nonpayable",
      "type": "function"
    },
    {
      "inputs": [
        {
          "internalType": "contract TimelockControllerUpgradeable",
          "name": "newTimelock",
          "type": "address"
        }
      ],
      "name": "updateTimelock",
      "outputs": [],
      "stateMutability": "nonpayable",
      "type": "function"
    },
    {
      "inputs": [
        {
          "internalType": "address",
          "name": "newImplementation",
          "type": "address"
        }
      ],
      "name": "upgradeTo",
      "outputs": [],
      "stateMutability": "nonpayable",
      "type": "function"
    },
    {
      "inputs": [
        {
          "internalType": "address",
          "name": "newImplementation",
          "type": "address"
        },
        {
          "internalType": "bytes",
          "name": "data",
          "type": "bytes"
        }
      ],
      "name": "upgradeToAndCall",
      "outputs": [],
      "stateMutability": "payable",
      "type": "function"
    },
    {
      "inputs": [],
      "name": "version",
      "outputs": [
        {
          "internalType": "string",
          "name": "",
          "type": "string"
        }
      ],
      "stateMutability": "view",
      "type": "function"
    },
    {
      "inputs": [],
      "name": "votingDelay",
      "outputs": [
        {
          "internalType": "uint256",
          "name": "",
          "type": "uint256"
        }
      ],
      "stateMutability": "view",
      "type": "function"
    },
    {
      "inputs": [],
      "name": "votingPeriod",
      "outputs": [
        {
          "internalType": "uint256",
          "name": "",
          "type": "uint256"
        }
      ],
      "stateMutability": "view",
      "type": "function"
    },
    {
      "stateMutability": "payable",
      "type": "receive"
    }
  ],
  "bytecode": "0x60a0604052306080523480156200001557600080fd5b506200002062000026565b620000e7565b600054610100900460ff1615620000935760405162461bcd60e51b815260206004820152602760248201527f496e697469616c697a61626c653a20636f6e747261637420697320696e697469604482015266616c697a696e6760c81b606482015260840160405180910390fd5b60005460ff90811614620000e5576000805460ff191660ff9081179091556040519081527f7f26b83ff96e1f2b6a682f133852f6798a09c465da95921460cefb38474024989060200160405180910390a15b565b608051615a7e6200011f6000396000818161140901528181611449015281816117300152818161177001526117ff0152615a7e6000f3fe60806040526004361061037a5760003560e01c806360c4247f116101d1578063bc197c8111610102578063deaaa7cc116100a0578063f23a6e611161006f578063f23a6e6114610ba2578063f72c0d8b14610bce578063f8ce560a14610c02578063fc0c546a14610c2257600080fd5b8063deaaa7cc14610b0e578063ea0217cf14610b42578063eb9019d414610b62578063ece40cc114610b8257600080fd5b8063c59057e4116100dc578063c59057e414610a69578063d33219b414610a89578063d547741f14610aa8578063dd4e2ba514610ac857600080fd5b8063bc197c81146109f1578063c01f9e3714610a1d578063c28bc2fa14610a5657600080fd5b806397c3d3341161016f578063a7713a7011610149578063a7713a7014610987578063a890c9101461099c578063ab58fb8e146109bc578063b58131b0146109dc57600080fd5b806397c3d3341461093e5780639a802a6d14610952578063a217fddf1461097257600080fd5b80637d5e81e2116101ab5780637d5e81e2146108aa57806384b0196e146108ca57806391d14854146108f257806391ddadf41461091257600080fd5b806360c4247f1461084a57806370b0f6601461086a5780637b3c71d31461088a57600080fd5b806336568abe116102ab5780634bf5d7e911610249578063544ffc9c11610223578063544ffc9c1461078a57806354fd4d50146107e0578063567813881461080a5780635f398a141461082a57600080fd5b80634bf5d7e91461074d5780634f1ef2861461076257806352d1902d1461077557600080fd5b80633bccf4fd116102855780633bccf4fd146106955780633e4f49e6146106b557806343859632146106e2578063452115d61461072d57600080fd5b806336568abe146106405780633659cfe6146106605780633932abb11461068057600080fd5b8063160cbed7116103185780632656227d116102f25780632656227d146105a35780632d63f693146105b65780632f2ff15d146105ec5780632fe3e2611461060c57600080fd5b8063160cbed71461053257806322f120de14610552578063248a9ca31461057257600080fd5b806306f3f9e61161035457806306f3f9e61461046257806306fdde0314610482578063143489d0146104a4578063150b7a02146104f957600080fd5b806301ffc9a7146103ea57806302a251a31461041f578063034201811461044257600080fd5b366103e55730610388610c43565b6001600160a01b0316146103e35760405162461bcd60e51b815260206004820152601f60248201527f476f7665726e6f723a206d7573742073656e6420746f206578656375746f720060448201526064015b60405180910390fd5b005b600080fd5b3480156103f657600080fd5b5061040a61040536600461474a565b610c5d565b60405190151581526020015b60405180910390f35b34801561042b57600080fd5b50610434610c6e565b604051908152602001610416565b34801561044e57600080fd5b5061043461045d366004614898565b610c7a565b34801561046e57600080fd5b506103e361047d36600461493e565b610d72565b34801561048e57600080fd5b50610497610dfc565b60405161041691906149a7565b3480156104b057600080fd5b506104e16104bf36600461493e565b600090815260fe6020526040902054600160401b90046001600160a01b031690565b6040516001600160a01b039091168152602001610416565b34801561050557600080fd5b506105196105143660046149cf565b610e8e565b6040516001600160e01b03199091168152602001610416565b34801561053e57600080fd5b5061043461054d366004614ba6565b610e9f565b34801561055e57600080fd5b506103e361056d366004614c49565b6110a4565b34801561057e57600080fd5b5061043461058d36600461493e565b600090815261022a602052604090206001015490565b6104346105b1366004614ba6565b611264565b3480156105c257600080fd5b506104346105d136600461493e565b600090815260fe60205260409020546001600160401b031690565b3480156105f857600080fd5b506103e3610607366004614cc0565b611356565b34801561061857600080fd5b506104347fb3b3f3b703cd84ce352197dcff232b1b5d3cfb2025ce47cf04742d0651f1af8881565b34801561064c57600080fd5b506103e361065b366004614cc0565b611381565b34801561066c57600080fd5b506103e361067b366004614cf0565b6113ff565b34801561068c57600080fd5b506104346114db565b3480156106a157600080fd5b506104346106b0366004614d0d565b6114e7565b3480156106c157600080fd5b506106d56106d036600461493e565b61155d565b6040516104169190614d71565b3480156106ee57600080fd5b5061040a6106fd366004614cc0565b6000828152610161602090815260408083206001600160a01b038516845260030190915290205460ff1692915050565b34801561073957600080fd5b50610434610748366004614ba6565b611568565b34801561075957600080fd5b50610497611679565b6103e3610770366004614d99565b611726565b34801561078157600080fd5b506104346117f2565b34801561079657600080fd5b506107c56107a536600461493e565b600090815261016160205260409020805460018201546002909201549092565b60408051938452602084019290925290820152606001610416565b3480156107ec57600080fd5b506040805180820190915260018152603160f81b6020820152610497565b34801561081657600080fd5b50610434610825366004614de8565b6118a5565b34801561083657600080fd5b50610434610845366004614e14565b6118c6565b34801561085657600080fd5b5061043461086536600461493e565b611910565b34801561087657600080fd5b506103e361088536600461493e565b6119c5565b34801561089657600080fd5b506104346108a5366004614e97565b611a4c565b3480156108b657600080fd5b506104346108c5366004614ef0565b611a94565b3480156108d657600080fd5b506108df611aab565b6040516104169796959493929190614fdf565b3480156108fe57600080fd5b5061040a61090d366004614cc0565b611b49565b34801561091e57600080fd5b50610927611b75565b60405165ffffffffffff9091168152602001610416565b34801561094a57600080fd5b506064610434565b34801561095e57600080fd5b5061043461096d366004615041565b611be9565b34801561097e57600080fd5b50610434600081565b34801561099357600080fd5b50610434611c00565b3480156109a857600080fd5b506103e36109b7366004614cf0565b611c2d565b3480156109c857600080fd5b506104346109d736600461493e565b611cb4565b3480156109e857600080fd5b50610434611d50565b3480156109fd57600080fd5b50610519610a0c366004615099565b63bc197c8160e01b95945050505050565b348015610a2957600080fd5b50610434610a3836600461493e565b600090815260fe60205260409020600101546001600160401b031690565b6103e3610a6436600461512c565b611d5c565b348015610a7557600080fd5b50610434610a84366004614ba6565b611e62565b348015610a9557600080fd5b506101f8546001600160a01b03166104e1565b348015610ab457600080fd5b506103e3610ac3366004614cc0565b611e9c565b348015610ad457600080fd5b506040805180820190915260208082527f737570706f72743d627261766f2671756f72756d3d666f722c6162737461696e90820152610497565b348015610b1a57600080fd5b506104347f150214d74d59b7d1e90c73fc22ef3d991dd0a76b046543d4d80ab92d2a50328f81565b348015610b4e57600080fd5b506103e3610b5d36600461493e565b611ec2565b348015610b6e57600080fd5b50610434610b7d36600461516f565b611f49565b348015610b8e57600080fd5b506103e3610b9d36600461493e565b611f6a565b348015610bae57600080fd5b50610519610bbd36600461519b565b63f23a6e6160e01b95945050505050565b348015610bda57600080fd5b506104347f189ab7a9244df0848122154315af71fe140f3db0fe014031783b0946b8c9d2e381565b348015610c0e57600080fd5b50610434610c1d36600461493e565b611ff1565b348015610c2e57600080fd5b50610193546104e1906001600160a01b031681565b6000610c586101f8546001600160a01b031690565b905090565b6000610c6882611ffc565b92915050565b6000610c586101305490565b600080610d1e610d167fb3b3f3b703cd84ce352197dcff232b1b5d3cfb2025ce47cf04742d0651f1af888c8c8c8c604051610cb6929190615203565b60405180910390208b80519060200120604051602001610cfb959493929190948552602085019390935260ff9190911660408401526060830152608082015260a00190565b60405160208183030381529060405280519060200120612021565b86868661204e565b9050610d648a828b8b8b8080601f0160208091040260200160405190810160405280939291908181526020018383808284376000920191909152508d925061206c915050565b9a9950505050505050505050565b610d7a610c43565b6001600160a01b0316336001600160a01b031614610daa5760405162461bcd60e51b81526004016103da90615213565b30610db3610c43565b6001600160a01b031614610df05760008036604051610dd3929190615203565b604051809103902090505b80610de960ff6121c1565b03610dde57505b610df981612240565b50565b606060fd8054610e0b9061524a565b80601f0160208091040260200160405190810160405280929190818152602001828054610e379061524a565b8015610e845780601f10610e5957610100808354040283529160200191610e84565b820191906000526020600020905b815481529060010190602001808311610e6757829003601f168201915b5050505050905090565b630a85bd0160e11b5b949350505050565b600080610eae86868686611e62565b90506004610ebb8261155d565b6007811115610ecc57610ecc614d5b565b14610ee95760405162461bcd60e51b81526004016103da90615284565b6101f8546040805163793d064960e11b815290516000926001600160a01b03169163f27a0c929160048083019260209291908290030181865afa158015610f34573d6000803e3d6000fd5b505050506040513d601f19601f82011682018060405250810190610f5891906152c5565b6101f85460405163b1c5f42760e01b81529192506001600160a01b03169063b1c5f42790610f93908a908a908a906000908b9060040161536c565b602060405180830381865afa158015610fb0573d6000803e3d6000fd5b505050506040513d601f19601f82011682018060405250810190610fd491906152c5565b60008381526101f96020526040808220929092556101f85491516308f2a0bb60e41b81526001600160a01b0390921691638f2a0bb091611021918b918b918b91908b9089906004016153ba565b600060405180830381600087803b15801561103b57600080fd5b505af115801561104f573d6000803e3d6000fd5b505050507f9a2e42fd6722813d69113e7d0079d3d940171428df7373df9c7f7617cfda28928282426110819190615428565b604080519283526020830191909152015b60405180910390a15095945050505050565b600054610100900460ff16158080156110c45750600054600160ff909116105b806110de5750303b1580156110de575060005460ff166001145b6111415760405162461bcd60e51b815260206004820152602e60248201527f496e697469616c697a61626c653a20636f6e747261637420697320616c72656160448201526d191e481a5b9a5d1a585b1a5e995960921b60648201526084016103da565b6000805460ff191660011790558015611164576000805461ff0019166101001790555b6111946040518060400160405280600f81526020016e4173736574476f7665726e616e636560881b8152506123b1565b6111ad8565ffffffffffff168563ffffffff1685612408565b6111b561243a565b6111be87612463565b6111c782612493565b6111d0866124c3565b6111d861243a565b6111e061243a565b6111eb6000336124f3565b6112157f189ab7a9244df0848122154315af71fe140f3db0fe014031783b0946b8c9d2e3336124f3565b801561125b576000805461ff0019169055604051600181527f7f26b83ff96e1f2b6a682f133852f6798a09c465da95921460cefb38474024989060200160405180910390a15b50505050505050565b60008061127386868686611e62565b905060006112808261155d565b9050600481600781111561129657611296614d5b565b14806112b3575060058160078111156112b1576112b1614d5b565b145b6112cf5760405162461bcd60e51b81526004016103da90615284565b600082815260fe602052604090819020600201805460ff19166001179055517f712ae1383f79ac853f8d882153778e0260ef8f03b504e2866e0593e04d2b291f9061131d9084815260200190565b60405180910390a1611332828888888861257a565b61133f828888888861261c565b61134c8288888888612629565b5095945050505050565b600082815261022a602052604090206001015461137281612662565b61137c83836124f3565b505050565b6001600160a01b03811633146113f15760405162461bcd60e51b815260206004820152602f60248201527f416363657373436f6e74726f6c3a2063616e206f6e6c792072656e6f756e636560448201526e103937b632b9903337b91039b2b63360891b60648201526084016103da565b6113fb828261266c565b5050565b6001600160a01b037f00000000000000000000000000000000000000000000000000000000000000001630036114475760405162461bcd60e51b81526004016103da9061543b565b7f00000000000000000000000000000000000000000000000000000000000000006001600160a01b0316611490600080516020615a02833981519152546001600160a01b031690565b6001600160a01b0316146114b65760405162461bcd60e51b81526004016103da90615487565b6114bf816126d4565b60408051600080825260208201909252610df9918391906126fe565b6000610c5861012f5490565b604080517f150214d74d59b7d1e90c73fc22ef3d991dd0a76b046543d4d80ab92d2a50328f602082015290810186905260ff85166060820152600090819061153590610d1690608001610cfb565b905061155287828860405180602001604052806000815250612869565b979650505050505050565b6000610c688261288c565b60008061157786868686611e62565b905060006115848261155d565b600781111561159557611595614d5b565b146115e25760405162461bcd60e51b815260206004820152601c60248201527f476f7665726e6f723a20746f6f206c61746520746f2063616e63656c0000000060448201526064016103da565b600081815260fe6020526040902054600160401b90046001600160a01b0316336001600160a01b0316146116635760405162461bcd60e51b815260206004820152602260248201527f476f7665726e6f723a206f6e6c792070726f706f7365722063616e2063616e63604482015261195b60f21b60648201526084016103da565b61166f868686866129d9565b9695505050505050565b6101935460408051634bf5d7e960e01b815290516060926001600160a01b031691634bf5d7e99160048083019260009291908290030181865afa9250505080156116e557506040513d6000823e601f3d908101601f191682016040526116e291908101906154d3565b60015b611721575060408051808201909152601d81527f6d6f64653d626c6f636b6e756d6265722666726f6d3d64656661756c74000000602082015290565b919050565b6001600160a01b037f000000000000000000000000000000000000000000000000000000000000000016300361176e5760405162461bcd60e51b81526004016103da9061543b565b7f00000000000000000000000000000000000000000000000000000000000000006001600160a01b03166117b7600080516020615a02833981519152546001600160a01b031690565b6001600160a01b0316146117dd5760405162461bcd60e51b81526004016103da90615487565b6117e6826126d4565b6113fb828260016126fe565b6000306001600160a01b037f000000000000000000000000000000000000000000000000000000000000000016146118925760405162461bcd60e51b815260206004820152603860248201527f555550535570677261646561626c653a206d757374206e6f742062652063616c60448201527f6c6564207468726f7567682064656c656761746563616c6c000000000000000060648201526084016103da565b50600080516020615a0283398151915290565b600080339050610e9784828560405180602001604052806000815250612869565b60008033905061155287828888888080601f0160208091040260200160405190810160405280939291908181526020018383808284376000920191909152508a925061206c915050565b6101c7546000908082036119295750506101c654919050565b60006101c7611939600184615540565b8154811061194957611949615553565b60009182526020918290206040805180820190915291015463ffffffff8116808352600160201b9091046001600160e01b0316928201929092529150841061199f57602001516001600160e01b03169392505050565b6119b46119ab856129e7565b6101c790612a50565b6001600160e01b0316949350505050565b6119cd610c43565b6001600160a01b0316336001600160a01b0316146119fd5760405162461bcd60e51b81526004016103da90615213565b30611a06610c43565b6001600160a01b031614611a435760008036604051611a26929190615203565b604051809103902090505b80611a3c60ff6121c1565b03611a3157505b610df981612b03565b60008033905061166f86828787878080601f01602080910402602001604051908101604052809392919081815260200183838082843760009201919091525061286992505050565b6000611aa285858585612b46565b95945050505050565b6000606080600080600060606065546000801b148015611acb5750606654155b611b0f5760405162461bcd60e51b81526020600482015260156024820152741152540dcc4c8e88155b9a5b9a5d1a585b1a5e9959605a1b60448201526064016103da565b611b17612f1f565b611b1f612f2e565b60408051600080825260208201909252600f60f81b9b939a50919850469750309650945092509050565b600091825261022a602090815260408084206001600160a01b0393909316845291905290205460ff1690565b61019354604080516324776b7d60e21b815290516000926001600160a01b0316916391ddadf49160048083019260209291908290030181865afa925050508015611bdc575060408051601f3d908101601f19168201909252611bd991810190615569565b60015b61172157610c5843612f3d565b6000611bf6848484612fa4565b90505b9392505050565b6101c75460009015611c2557611c176101c761301b565b6001600160e01b0316905090565b506101c65490565b611c35610c43565b6001600160a01b0316336001600160a01b031614611c655760405162461bcd60e51b81526004016103da90615213565b30611c6e610c43565b6001600160a01b031614611cab5760008036604051611c8e929190615203565b604051809103902090505b80611ca460ff6121c1565b03611c9957505b610df98161304b565b6101f85460008281526101f9602052604080822054905163d45c443560e01b81526004810191909152909182916001600160a01b039091169063d45c443590602401602060405180830381865afa158015611d13573d6000803e3d6000fd5b505050506040513d601f19601f82011682018060405250810190611d3791906152c5565b905080600114611d475780611bf9565b60009392505050565b6000610c586101315490565b611d64610c43565b6001600160a01b0316336001600160a01b031614611d945760405162461bcd60e51b81526004016103da90615213565b30611d9d610c43565b6001600160a01b031614611dda5760008036604051611dbd929190615203565b604051809103902090505b80611dd360ff6121c1565b03611dc857505b600080856001600160a01b0316858585604051611df8929190615203565b60006040518083038185875af1925050503d8060008114611e35576040519150601f19603f3d011682016040523d82523d6000602084013e611e3a565b606091505b509150915061125b82826040518060600160405280602881526020016159da602891396130b6565b600084848484604051602001611e7b9493929190615586565b60408051601f19818403018152919052805160209091012095945050505050565b600082815261022a6020526040902060010154611eb881612662565b61137c838361266c565b611eca610c43565b6001600160a01b0316336001600160a01b031614611efa5760405162461bcd60e51b81526004016103da90615213565b30611f03610c43565b6001600160a01b031614611f405760008036604051611f23929190615203565b604051809103902090505b80611f3960ff6121c1565b03611f2e57505b610df9816130cf565b6000611bf98383611f6560408051602081019091526000815290565b612fa4565b611f72610c43565b6001600160a01b0316336001600160a01b031614611fa25760405162461bcd60e51b81526004016103da90615213565b30611fab610c43565b6001600160a01b031614611fe85760008036604051611fcb929190615203565b604051809103902090505b80611fe160ff6121c1565b03611fd657505b610df981613172565b6000610c68826131b5565b60006001600160e01b03198216637965db0b60e01b1480610c685750610c6882613244565b6000610c6861202e613269565b8360405161190160f01b8152600281019290925260228201526042902090565b600080600061205f87878787613273565b9150915061134c81613337565b600085815260fe6020526040812060016120858861155d565b600781111561209657612096614d5b565b146120ef5760405162461bcd60e51b815260206004820152602360248201527f476f7665726e6f723a20766f7465206e6f742063757272656e746c792061637460448201526269766560e81b60648201526084016103da565b80546000906121099088906001600160401b031686612fa4565b90506121188888888488613481565b835160000361216d57866001600160a01b03167fb8e138887d0aa13bab447e82de9d5c1777041ecd21ca36ba824ff1e6c07ddda48988848960405161216094939291906155d1565b60405180910390a2611552565b866001600160a01b03167fe2babfbac5889a709b63bb7f598b324e08bc5a4fb9ec647fb3cbc9ec07eb871289888489896040516121ae9594939291906155f9565b60405180910390a2979650505050505050565b60006121dc8254600f81810b600160801b909204900b131590565b156121fa57604051631ed9509560e11b815260040160405180910390fd5b508054600f0b6000818152600180840160205260408220805492905583546fffffffffffffffffffffffffffffffff191692016001600160801b03169190911790915590565b60648111156122c35760405162461bcd60e51b815260206004820152604360248201527f476f7665726e6f72566f74657351756f72756d4672616374696f6e3a2071756f60448201527f72756d4e756d657261746f72206f7665722071756f72756d44656e6f6d696e616064820152623a37b960e91b608482015260a4016103da565b60006122cd611c00565b905080158015906122df57506101c754155b156123445760408051808201909152600081526101c79060208101612303846135fc565b6001600160e01b039081169091528254600181018455600093845260209384902083519490930151909116600160201b0263ffffffff909316929092179101555b61237261235f612352611b75565b65ffffffffffff166129e7565b612368846135fc565b6101c79190613665565b505060408051828152602081018490527f0553476bf02ef2726e8ce5ced78d63e26e602e4a2257b1f559418e24b4633997910160405180910390a15050565b600054610100900460ff166123d85760405162461bcd60e51b81526004016103da9061563f565b6123ff816123fa6040805180820190915260018152603160f81b602082015290565b613680565b610df9816136cf565b600054610100900460ff1661242f5760405162461bcd60e51b81526004016103da9061563f565b61137c838383613702565b600054610100900460ff166124615760405162461bcd60e51b81526004016103da9061563f565b565b600054610100900460ff1661248a5760405162461bcd60e51b81526004016103da9061563f565b610df981613744565b600054610100900460ff166124ba5760405162461bcd60e51b81526004016103da9061563f565b610df98161378e565b600054610100900460ff166124ea5760405162461bcd60e51b81526004016103da9061563f565b610df9816137b5565b6124fd8282611b49565b6113fb57600082815261022a602090815260408083206001600160a01b03851684529091529020805460ff191660011790556125363390565b6001600160a01b0316816001600160a01b0316837f2f8788117e7eff1d82e926ec794901d17c78024a50270940304540a733656f0d60405160405180910390a45050565b30612583610c43565b6001600160a01b0316146126155760005b845181101561261357306001600160a01b03168582815181106125b9576125b9615553565b60200260200101516001600160a01b031603612603576126038382815181106125e4576125e4615553565b60200260200101518051906020012060ff6137dc90919063ffffffff16565b61260c8161568a565b9050612594565b505b5050505050565b6126158585858585613818565b30612632610c43565b6001600160a01b0316146126155760ff54600f81810b600160801b909204900b131561261557600060ff55612615565b610df9813361388d565b6126768282611b49565b156113fb57600082815261022a602090815260408083206001600160a01b0385168085529252808320805460ff1916905551339285917ff6391f5c32d9c69d2a47ea670b442974b53935d1edc7fd64eb21e047a839171b9190a45050565b7f189ab7a9244df0848122154315af71fe140f3db0fe014031783b0946b8c9d2e36113fb81612662565b7f4910fdfa16fed3260ed0e7147f7cc6da11a60208b5b9406d12a635614ffd91435460ff16156127315761137c836138e6565b826001600160a01b03166352d1902d6040518163ffffffff1660e01b8152600401602060405180830381865afa92505050801561278b575060408051601f3d908101601f19168201909252612788918101906152c5565b60015b6127ee5760405162461bcd60e51b815260206004820152602e60248201527f45524331393637557067726164653a206e657720696d706c656d656e7461746960448201526d6f6e206973206e6f74205555505360901b60648201526084016103da565b600080516020615a02833981519152811461285d5760405162461bcd60e51b815260206004820152602960248201527f45524331393637557067726164653a20756e737570706f727465642070726f786044820152681a58589b195555525160ba1b60648201526084016103da565b5061137c838383613982565b6000611aa28585858561288760408051602081019091526000815290565b61206c565b600080612898836139ad565b905060048160078111156128ae576128ae614d5b565b146128b95792915050565b60008381526101f96020526040902054806128d5575092915050565b6101f854604051632ab0f52960e01b8152600481018390526001600160a01b0390911690632ab0f52990602401602060405180830381865afa15801561291f573d6000803e3d6000fd5b505050506040513d601f19601f8201168201806040525081019061294391906156a3565b15612952575060079392505050565b6101f854604051632c258a9f60e11b8152600481018390526001600160a01b039091169063584b153e90602401602060405180830381865afa15801561299c573d6000803e3d6000fd5b505050506040513d601f19601f820116820180604052508101906129c091906156a3565b156129cf575060059392505050565b5060029392505050565b6000611aa285858585613aee565b600063ffffffff821115612a4c5760405162461bcd60e51b815260206004820152602660248201527f53616665436173743a2076616c756520646f65736e27742066697420696e203360448201526532206269747360d01b60648201526084016103da565b5090565b815460009081816005811115612aad576000612a6b84613ba4565b612a759085615540565b60008881526020902090915081015463ffffffff9081169087161015612a9d57809150612aab565b612aa8816001615428565b92505b505b6000612abb87878585613c8c565b90508015612af657612ae087612ad2600184615540565b600091825260209091200190565b54600160201b90046001600160e01b0316611552565b6000979650505050505050565b61012f5460408051918252602082018390527fc565b045403dc03c2eea82b81a0465edad9e2e7fc4d97e11421c209da93d7a93910160405180910390a161012f55565b600033612b538184613cea565b612b9f5760405162461bcd60e51b815260206004820152601d60248201527f476f7665726e6f723a2070726f706f736572207265737472696374656400000060448201526064016103da565b6000612ba9611b75565b65ffffffffffff169050612bbb611d50565b612bca83610b7d600185615540565b1015612c325760405162461bcd60e51b815260206004820152603160248201527f476f7665726e6f723a2070726f706f73657220766f7465732062656c6f7720706044820152701c9bdc1bdcd85b081d1a1c995cda1bdb19607a1b60648201526084016103da565b6000612c478888888880519060200120611e62565b90508651885114612c6a5760405162461bcd60e51b81526004016103da906156c5565b8551885114612c8b5760405162461bcd60e51b81526004016103da906156c5565b6000885111612cdc5760405162461bcd60e51b815260206004820152601860248201527f476f7665726e6f723a20656d7074792070726f706f73616c000000000000000060448201526064016103da565b600081815260fe60205260409020546001600160401b031615612d4b5760405162461bcd60e51b815260206004820152602160248201527f476f7665726e6f723a2070726f706f73616c20616c72656164792065786973746044820152607360f81b60648201526084016103da565b6000612d556114db565b612d5f9084615428565b90506000612d6b610c6e565b612d759083615428565b90506040518060e00160405280612d8b84613ddb565b6001600160401b031681526001600160a01b038716602082015260006040820152606001612db883613ddb565b6001600160401b039081168252600060208084018290526040808501839052606094850183905288835260fe8252918290208551815492870151878501519186166001600160e01b031990941693909317600160401b6001600160a01b039094168402176001600160e01b0316600160e01b60e09290921c91909102178155938501516080860151908416921c0217600183015560a08301516002909201805460c09094015161ffff1990941692151561ff00191692909217610100931515939093029290921790558a517f7d84a6263ae0d98d3329bd7b46bb4e8d6f98cd35a7adb45c274c8b7fd5ebd5e091859188918e918e91811115612ebc57612ebc6147cd565b604051908082528060200260200182016040528015612eef57816020015b6060815260200190600190039081612eda5790505b508d88888f604051612f0999989796959493929190615706565b60405180910390a1509098975050505050505050565b606060678054610e0b9061524a565b606060688054610e0b9061524a565b600065ffffffffffff821115612a4c5760405162461bcd60e51b815260206004820152602660248201527f53616665436173743a2076616c756520646f65736e27742066697420696e203460448201526538206269747360d01b60648201526084016103da565b61019354604051630748d63560e31b81526001600160a01b038581166004830152602482018590526000921690633a46b1a890604401602060405180830381865afa158015612ff7573d6000803e3d6000fd5b505050506040513d601f19601f82011682018060405250810190611bf691906152c5565b80546000908015611d475761303583612ad2600184615540565b54600160201b90046001600160e01b0316611bf9565b6101f854604080516001600160a01b03928316815291831660208301527f08f74ea46ef7894f65eabfb5e6e695de773a000b47c529ab559178069b226401910160405180910390a16101f880546001600160a01b0319166001600160a01b0392909216919091179055565b606083156130c5575081611bf9565b611bf98383613e43565b6000811161312f5760405162461bcd60e51b815260206004820152602760248201527f476f7665726e6f7253657474696e67733a20766f74696e6720706572696f6420604482015266746f6f206c6f7760c81b60648201526084016103da565b6101305460408051918252602082018390527f7e3f7f0708a84de9203036abaa450dccc85ad5ff52f78c170f3edb55cf5e8828910160405180910390a161013055565b6101315460408051918252602082018390527fccb45da8d5717e6c4544694297c4ba5cf151d455c9bb0ed4fc7a38411bc05461910160405180910390a161013155565b600060646131c283611910565b61019354604051632394e7a360e21b8152600481018690526001600160a01b0390911690638e539e8c90602401602060405180830381865afa15801561320c573d6000803e3d6000fd5b505050506040513d601f19601f8201168201806040525081019061323091906152c5565b61323a91906157dd565b610c68919061580a565b60006001600160e01b03198216636e665ced60e01b1480610c685750610c6882613e6d565b6000610c58613f09565b6000807f7fffffffffffffffffffffffffffffff5d576e7357a4501ddfe92f46681b20a08311156132aa575060009050600361332e565b6040805160008082526020820180845289905260ff881692820192909252606081018690526080810185905260019060a0016020604051602081039080840390855afa1580156132fe573d6000803e3d6000fd5b5050604051601f1901519150506001600160a01b0381166133275760006001925092505061332e565b9150600090505b94509492505050565b600081600481111561334b5761334b614d5b565b036133535750565b600181600481111561336757613367614d5b565b036133b45760405162461bcd60e51b815260206004820152601860248201527f45434453413a20696e76616c6964207369676e6174757265000000000000000060448201526064016103da565b60028160048111156133c8576133c8614d5b565b036134155760405162461bcd60e51b815260206004820152601f60248201527f45434453413a20696e76616c6964207369676e6174757265206c656e6774680060448201526064016103da565b600381600481111561342957613429614d5b565b03610df95760405162461bcd60e51b815260206004820152602260248201527f45434453413a20696e76616c6964207369676e6174757265202773272076616c604482015261756560f01b60648201526084016103da565b6000858152610161602090815260408083206001600160a01b0388168452600381019092529091205460ff161561350a5760405162461bcd60e51b815260206004820152602760248201527f476f7665726e6f72566f74696e6753696d706c653a20766f746520616c726561604482015266191e4818d85cdd60ca1b60648201526084016103da565b6001600160a01b03851660009081526003820160205260409020805460ff1916600117905560ff8416613556578281600001600082825461354b9190615428565b909155506126139050565b60001960ff851601613576578281600101600082825461354b9190615428565b60011960ff851601613596578281600201600082825461354b9190615428565b60405162461bcd60e51b815260206004820152603560248201527f476f7665726e6f72566f74696e6753696d706c653a20696e76616c69642076616044820152746c756520666f7220656e756d20566f74655479706560581b60648201526084016103da565b60006001600160e01b03821115612a4c5760405162461bcd60e51b815260206004820152602760248201527f53616665436173743a2076616c756520646f65736e27742066697420696e20326044820152663234206269747360c81b60648201526084016103da565b600080613673858585613f7d565b915091505b935093915050565b600054610100900460ff166136a75760405162461bcd60e51b81526004016103da9061563f565b60676136b38382615872565b5060686136c08282615872565b50506000606581905560665550565b600054610100900460ff166136f65760405162461bcd60e51b81526004016103da9061563f565b60fd6113fb8282615872565b600054610100900460ff166137295760405162461bcd60e51b81526004016103da9061563f565b61373283612b03565b61373b826130cf565b61137c81613172565b600054610100900460ff1661376b5760405162461bcd60e51b81526004016103da9061563f565b61019380546001600160a01b0319166001600160a01b0392909216919091179055565b600054610100900460ff16610df05760405162461bcd60e51b81526004016103da9061563f565b600054610100900460ff16611cab5760405162461bcd60e51b81526004016103da9061563f565b8154600160801b90819004600f0b6000818152600180860160205260409091209390935583546001600160801b03908116939091011602179055565b6101f85460405163e38335e560e01b81526001600160a01b039091169063e38335e590349061385490889088908890600090899060040161536c565b6000604051808303818588803b15801561386d57600080fd5b505af1158015613881573d6000803e3d6000fd5b50505050505050505050565b6138978282611b49565b6113fb576138a48161411c565b6138af83602061412e565b6040516020016138c0929190615931565b60408051601f198184030181529082905262461bcd60e51b82526103da916004016149a7565b6001600160a01b0381163b6139535760405162461bcd60e51b815260206004820152602d60248201527f455243313936373a206e657720696d706c656d656e746174696f6e206973206e60448201526c1bdd08184818dbdb9d1c9858dd609a1b60648201526084016103da565b600080516020615a0283398151915280546001600160a01b0319166001600160a01b0392909216919091179055565b61398b836142c9565b6000825111806139985750805b1561137c576139a78383614309565b50505050565b600081815260fe60205260408120600281015460ff16156139d15750600792915050565b6002810154610100900460ff16156139ec5750600292915050565b600083815260fe60205260408120546001600160401b031690819003613a545760405162461bcd60e51b815260206004820152601d60248201527f476f7665726e6f723a20756e6b6e6f776e2070726f706f73616c20696400000060448201526064016103da565b6000613a5e611b75565b65ffffffffffff169050808210613a7a57506000949350505050565b600085815260fe60205260409020600101546001600160401b0316818110613aa85750600195945050505050565b613ab18661432e565b8015613ad157506000868152610161602052604090208054600190910154115b15613ae25750600495945050505050565b50600395945050505050565b600080613afd8686868661437b565b60008181526101f9602052604090205490915015611aa2576101f85460008281526101f960205260409081902054905163c4d252f560e01b81526001600160a01b039092169163c4d252f591613b599160040190815260200190565b600060405180830381600087803b158015613b7357600080fd5b505af1158015613b87573d6000803e3d6000fd5b50505060008281526101f960205260408120555095945050505050565b600081600003613bb657506000919050565b60006001613bc384614487565b901c6001901b90506001818481613bdc57613bdc6157f4565b048201901c90506001818481613bf457613bf46157f4565b048201901c90506001818481613c0c57613c0c6157f4565b048201901c90506001818481613c2457613c246157f4565b048201901c90506001818481613c3c57613c3c6157f4565b048201901c90506001818481613c5457613c546157f4565b048201901c90506001818481613c6c57613c6c6157f4565b048201901c9050611bf981828581613c8657613c866157f4565b0461451b565b60005b81831015613ce2576000613ca38484614531565b60008781526020902090915063ffffffff86169082015463ffffffff161115613cce57809250613cdc565b613cd9816001615428565b93505b50613c8f565b509392505050565b80516000906034811015613d02576001915050610c68565b82810160131901516001600160a01b031981166b046e0e4dee0dee6cae47a60f60a31b14613d3557600192505050610c68565b600080613d43602885615540565b90505b83811015613dba57600080613d7a888481518110613d6657613d66615553565b01602001516001600160f81b03191661454c565b9150915081613d925760019650505050505050610c68565b8060ff166004856001600160a01b0316901b179350505080613db39061568a565b9050613d46565b50856001600160a01b0316816001600160a01b031614935050505092915050565b60006001600160401b03821115612a4c5760405162461bcd60e51b815260206004820152602660248201527f53616665436173743a2076616c756520646f65736e27742066697420696e203660448201526534206269747360d01b60648201526084016103da565b815115613e535781518083602001fd5b8060405162461bcd60e51b81526004016103da91906149a7565b600063288ace0360e11b6318df743f60e31b63bf26d89760e01b6379dd796f60e01b6001600160e01b03198616821480613eb357506001600160e01b0319868116908216145b80613eca57506001600160e01b0319868116908516145b80613ee557506001600160e01b03198616630271189760e51b145b8061166f57506301ffc9a760e01b6001600160e01b03198716149695505050505050565b60007f8b73c3c69bb8fe3d512ecc4cf759cc79239f7b179b0ffacaa9a75d522b39400f613f346145de565b613f3c614637565b60408051602081019490945283019190915260608201524660808201523060a082015260c00160405160208183030381529060405280519060200120905090565b8254600090819080156140c3576000613f9b87612ad2600185615540565b60408051808201909152905463ffffffff808216808452600160201b9092046001600160e01b03166020840152919250908716101561401c5760405162461bcd60e51b815260206004820152601b60248201527f436865636b706f696e743a2064656372656173696e67206b657973000000000060448201526064016103da565b805163ffffffff808816911603614064578461403d88612ad2600186615540565b80546001600160e01b0392909216600160201b0263ffffffff9092169190911790556140b3565b6040805180820190915263ffffffff80881682526001600160e01b0380881660208085019182528b54600181018d5560008d81529190912094519151909216600160201b029216919091179101555b6020015192508391506136789050565b50506040805180820190915263ffffffff80851682526001600160e01b0380851660208085019182528854600181018a5560008a815291822095519251909316600160201b029190931617920191909155905081613678565b6060610c686001600160a01b03831660145b6060600061413d8360026157dd565b614148906002615428565b6001600160401b0381111561415f5761415f6147cd565b6040519080825280601f01601f191660200182016040528015614189576020820181803683370190505b509050600360fc1b816000815181106141a4576141a4615553565b60200101906001600160f81b031916908160001a905350600f60fb1b816001815181106141d3576141d3615553565b60200101906001600160f81b031916908160001a90535060006141f78460026157dd565b614202906001615428565b90505b600181111561427a576f181899199a1a9b1b9c1cb0b131b232b360811b85600f166010811061423657614236615553565b1a60f81b82828151811061424c5761424c615553565b60200101906001600160f81b031916908160001a90535060049490941c93614273816159a6565b9050614205565b508315611bf95760405162461bcd60e51b815260206004820181905260248201527f537472696e67733a20686578206c656e67746820696e73756666696369656e7460448201526064016103da565b6142d2816138e6565b6040516001600160a01b038216907fbc7cd75a20ee27fd9adebab32041f755214dbc6bffa90cc0225b39da2e5c2d3b90600090a250565b6060611bf98383604051806060016040528060278152602001615a2260279139614668565b600081815261016160205260408120600281015460018201546143519190615428565b600084815260fe6020526040902054614372906001600160401b0316611ff1565b11159392505050565b60008061438a86868686611e62565b905060006143978261155d565b905060028160078111156143ad576143ad614d5b565b141580156143cd575060068160078111156143ca576143ca614d5b565b14155b80156143eb575060078160078111156143e8576143e8614d5b565b14155b6144375760405162461bcd60e51b815260206004820152601d60248201527f476f7665726e6f723a2070726f706f73616c206e6f742061637469766500000060448201526064016103da565b600082815260fe602052604090819020600201805461ff001916610100179055517f789cf55be980739dad1d0699b93b58e806b51c9d96619bfa8fe0a28abaa7b30c906110929084815260200190565b600080608083901c1561449c57608092831c92015b604083901c156144ae57604092831c92015b602083901c156144c057602092831c92015b601083901c156144d257601092831c92015b600883901c156144e457600892831c92015b600483901c156144f657600492831c92015b600283901c1561450857600292831c92015b600183901c15610c685760010192915050565b600081831061452a5781611bf9565b5090919050565b6000614540600284841861580a565b611bf990848416615428565b60008060f883901c602f811180156145675750603a8160ff16105b1561457c57600194602f199091019350915050565b8060ff166040108015614592575060478160ff16105b156145a7576001946036199091019350915050565b8060ff1660601080156145bd575060678160ff16105b156145d2576001946056199091019350915050565b50600093849350915050565b6000806145e9612f1f565b805190915015614600578051602090910120919050565b606554801561460f5792915050565b7fc5d2460186f7233c927e7db2dcc703c0e500b653ca82273b7bfad8045d85a4709250505090565b600080614642612f2e565b805190915015614659578051602090910120919050565b606654801561460f5792915050565b6060600080856001600160a01b03168560405161468591906159bd565b600060405180830381855af49150503d80600081146146c0576040519150601f19603f3d011682016040523d82523d6000602084013e6146c5565b606091505b509150915061166f8683838760608315614740578251600003614739576001600160a01b0385163b6147395760405162461bcd60e51b815260206004820152601d60248201527f416464726573733a2063616c6c20746f206e6f6e2d636f6e747261637400000060448201526064016103da565b5081610e97565b610e978383613e43565b60006020828403121561475c57600080fd5b81356001600160e01b031981168114611bf957600080fd5b803560ff8116811461172157600080fd5b60008083601f84011261479757600080fd5b5081356001600160401b038111156147ae57600080fd5b6020830191508360208285010111156147c657600080fd5b9250929050565b634e487b7160e01b600052604160045260246000fd5b604051601f8201601f191681016001600160401b038111828210171561480b5761480b6147cd565b604052919050565b60006001600160401b0382111561482c5761482c6147cd565b50601f01601f191660200190565b600061484d61484884614813565b6147e3565b905082815283838301111561486157600080fd5b828260208301376000602084830101529392505050565b600082601f83011261488957600080fd5b611bf98383356020850161483a565b60008060008060008060008060e0898b0312156148b457600080fd5b883597506148c460208a01614774565b965060408901356001600160401b03808211156148e057600080fd5b6148ec8c838d01614785565b909850965060608b013591508082111561490557600080fd5b506149128b828c01614878565b94505061492160808a01614774565b925060a0890135915060c089013590509295985092959890939650565b60006020828403121561495057600080fd5b5035919050565b60005b8381101561497257818101518382015260200161495a565b50506000910152565b60008151808452614993816020860160208601614957565b601f01601f19169290920160200192915050565b602081526000611bf9602083018461497b565b6001600160a01b0381168114610df957600080fd5b600080600080608085870312156149e557600080fd5b84356149f0816149ba565b93506020850135614a00816149ba565b92506040850135915060608501356001600160401b03811115614a2257600080fd5b614a2e87828801614878565b91505092959194509250565b60006001600160401b03821115614a5357614a536147cd565b5060051b60200190565b600082601f830112614a6e57600080fd5b81356020614a7e61484883614a3a565b82815260059290921b84018101918181019086841115614a9d57600080fd5b8286015b84811015614ac1578035614ab4816149ba565b8352918301918301614aa1565b509695505050505050565b600082601f830112614add57600080fd5b81356020614aed61484883614a3a565b82815260059290921b84018101918181019086841115614b0c57600080fd5b8286015b84811015614ac15780358352918301918301614b10565b600082601f830112614b3857600080fd5b81356020614b4861484883614a3a565b82815260059290921b84018101918181019086841115614b6757600080fd5b8286015b84811015614ac15780356001600160401b03811115614b8a5760008081fd5b614b988986838b0101614878565b845250918301918301614b6b565b60008060008060808587031215614bbc57600080fd5b84356001600160401b0380821115614bd357600080fd5b614bdf88838901614a5d565b95506020870135915080821115614bf557600080fd5b614c0188838901614acc565b94506040870135915080821115614c1757600080fd5b50614c2487828801614b27565b949793965093946060013593505050565b65ffffffffffff81168114610df957600080fd5b60008060008060008060c08789031215614c6257600080fd5b8635614c6d816149ba565b95506020870135614c7d816149ba565b94506040870135614c8d81614c35565b9350606087013563ffffffff81168114614ca657600080fd5b9598949750929560808101359460a0909101359350915050565b60008060408385031215614cd357600080fd5b823591506020830135614ce5816149ba565b809150509250929050565b600060208284031215614d0257600080fd5b8135611bf9816149ba565b600080600080600060a08688031215614d2557600080fd5b85359450614d3560208701614774565b9350614d4360408701614774565b94979396509394606081013594506080013592915050565b634e487b7160e01b600052602160045260246000fd5b6020810160088310614d9357634e487b7160e01b600052602160045260246000fd5b91905290565b60008060408385031215614dac57600080fd5b8235614db7816149ba565b915060208301356001600160401b03811115614dd257600080fd5b614dde85828601614878565b9150509250929050565b60008060408385031215614dfb57600080fd5b82359150614e0b60208401614774565b90509250929050565b600080600080600060808688031215614e2c57600080fd5b85359450614e3c60208701614774565b935060408601356001600160401b0380821115614e5857600080fd5b614e6489838a01614785565b90955093506060880135915080821115614e7d57600080fd5b50614e8a88828901614878565b9150509295509295909350565b60008060008060608587031215614ead57600080fd5b84359350614ebd60208601614774565b925060408501356001600160401b03811115614ed857600080fd5b614ee487828801614785565b95989497509550505050565b60008060008060808587031215614f0657600080fd5b84356001600160401b0380821115614f1d57600080fd5b614f2988838901614a5d565b95506020870135915080821115614f3f57600080fd5b614f4b88838901614acc565b94506040870135915080821115614f6157600080fd5b614f6d88838901614b27565b93506060870135915080821115614f8357600080fd5b508501601f81018713614f9557600080fd5b614a2e8782356020840161483a565b600081518084526020808501945080840160005b83811015614fd457815187529582019590820190600101614fb8565b509495945050505050565b60ff60f81b8816815260e060208201526000614ffe60e083018961497b565b8281036040840152615010818961497b565b606084018890526001600160a01b038716608085015260a0840186905283810360c08501529050610d648185614fa4565b60008060006060848603121561505657600080fd5b8335615061816149ba565b92506020840135915060408401356001600160401b0381111561508357600080fd5b61508f86828701614878565b9150509250925092565b600080600080600060a086880312156150b157600080fd5b85356150bc816149ba565b945060208601356150cc816149ba565b935060408601356001600160401b03808211156150e857600080fd5b6150f489838a01614acc565b9450606088013591508082111561510a57600080fd5b61511689838a01614acc565b93506080880135915080821115614e7d57600080fd5b6000806000806060858703121561514257600080fd5b843561514d816149ba565b93506020850135925060408501356001600160401b03811115614ed857600080fd5b6000806040838503121561518257600080fd5b823561518d816149ba565b946020939093013593505050565b600080600080600060a086880312156151b357600080fd5b85356151be816149ba565b945060208601356151ce816149ba565b9350604086013592506060860135915060808601356001600160401b038111156151f757600080fd5b614e8a88828901614878565b8183823760009101908152919050565b60208082526018908201527f476f7665726e6f723a206f6e6c79476f7665726e616e63650000000000000000604082015260600190565b600181811c9082168061525e57607f821691505b60208210810361527e57634e487b7160e01b600052602260045260246000fd5b50919050565b60208082526021908201527f476f7665726e6f723a2070726f706f73616c206e6f74207375636365737366756040820152601b60fa1b606082015260800190565b6000602082840312156152d757600080fd5b5051919050565b600081518084526020808501945080840160005b83811015614fd45781516001600160a01b0316875295820195908201906001016152f2565b600081518084526020808501808196508360051b8101915082860160005b8581101561535f57828403895261534d84835161497b565b98850198935090840190600101615335565b5091979650505050505050565b60a08152600061537f60a08301886152de565b82810360208401526153918188614fa4565b905082810360408401526153a58187615317565b60608401959095525050608001529392505050565b60c0815260006153cd60c08301896152de565b82810360208401526153df8189614fa4565b905082810360408401526153f38188615317565b60608401969096525050608081019290925260a0909101529392505050565b634e487b7160e01b600052601160045260246000fd5b80820180821115610c6857610c68615412565b6020808252602c908201527f46756e6374696f6e206d7573742062652063616c6c6564207468726f7567682060408201526b19195b1959d85d1958d85b1b60a21b606082015260800190565b6020808252602c908201527f46756e6374696f6e206d7573742062652063616c6c6564207468726f7567682060408201526b6163746976652070726f787960a01b606082015260800190565b6000602082840312156154e557600080fd5b81516001600160401b038111156154fb57600080fd5b8201601f8101841361550c57600080fd5b805161551a61484882614813565b81815285602083850101111561552f57600080fd5b611aa2826020830160208601614957565b81810381811115610c6857610c68615412565b634e487b7160e01b600052603260045260246000fd5b60006020828403121561557b57600080fd5b8151611bf981614c35565b60808152600061559960808301876152de565b82810360208401526155ab8187614fa4565b905082810360408401526155bf8186615317565b91505082606083015295945050505050565b84815260ff8416602082015282604082015260806060820152600061166f608083018461497b565b85815260ff8516602082015283604082015260a06060820152600061562160a083018561497b565b8281036080840152615633818561497b565b98975050505050505050565b6020808252602b908201527f496e697469616c697a61626c653a20636f6e7472616374206973206e6f74206960408201526a6e697469616c697a696e6760a81b606082015260800190565b60006001820161569c5761569c615412565b5060010190565b6000602082840312156156b557600080fd5b81518015158114611bf957600080fd5b60208082526021908201527f476f7665726e6f723a20696e76616c69642070726f706f73616c206c656e67746040820152600d60fb1b606082015260800190565b60006101208b8352602060018060a01b038c168185015281604085015261572f8285018c6152de565b91508382036060850152615743828b614fa4565b915083820360808501528189518084528284019150828160051b850101838c0160005b8381101561579457601f1987840301855261578283835161497b565b94860194925090850190600101615766565b505086810360a08801526157a8818c615317565b9450505050508560c08401528460e08401528281036101008401526157cd818561497b565b9c9b505050505050505050505050565b8082028115828204841417610c6857610c68615412565b634e487b7160e01b600052601260045260246000fd5b60008261582757634e487b7160e01b600052601260045260246000fd5b500490565b601f82111561137c57600081815260208120601f850160051c810160208610156158535750805b601f850160051c820191505b818110156126135782815560010161585f565b81516001600160401b0381111561588b5761588b6147cd565b61589f81615899845461524a565b8461582c565b602080601f8311600181146158d457600084156158bc5750858301515b600019600386901b1c1916600185901b178555612613565b600085815260208120601f198616915b82811015615903578886015182559484019460019091019084016158e4565b50858210156159215787850151600019600388901b60f8161c191681555b5050505050600190811b01905550565b7f416363657373436f6e74726f6c3a206163636f756e7420000000000000000000815260008351615969816017850160208801614957565b7001034b99036b4b9b9b4b733903937b6329607d1b601791840191820152835161599a816028840160208801614957565b01602801949350505050565b6000816159b5576159b5615412565b506000190190565b600082516159cf818460208701614957565b919091019291505056fe476f7665726e6f723a2072656c617920726576657274656420776974686f7574206d657373616765360894a13ba1a3210667c828492db98dca3e2076cc3735a920a3ca505d382bbc416464726573733a206c6f772d6c6576656c2064656c65676174652063616c6c206661696c6564a26469706673582212205218a066d7714c133a8b9c061b9693750a56efe183b667ddd6d90f4b856be1ea64736f6c63430008140033",
  "linkReferences": {},
  "deployedLinkReferences": {}
}