{
  "_format": "hh-sol-artifact-1",
  "contractName": "AssetNFT",
  "sourceName": "contracts/AssetNFT.sol",
  "abi": [
    {
      "inputs": [],
      "stateMutability": "nonpayable",
      "type": "constructor"
    },
    {
      "anonymous": false,
      "inputs": [
        {
          "indexed": false,
          "internalType": "address",
          "name": "previousAdmin",
          "type": "address"
        },
        {
          "indexed": false,
          "internalType": "address",
          "name": "newAdmin",
          "type": "address"
        }
      ],
      "name": "AdminChanged",
      "type": "event"
    },
    {
      "anonymous": false,
      "inputs": [
        {
          "indexed": true,
          "internalType": "address",
          "name": "owner",
          "type": "address"
        },
        {
          "indexed": true,
          "internalType": "address",
          "name": "approved",
          "type": "address"
        },
        {
          "indexed": true,
          "internalType": "uint256",
          "name": "tokenId",
          "type": "uint256"
        }
      ],
      "name": "Approval",
      "type": "event"
    },
    {
      "anonymous": false,
      "inputs": [
        {
          "indexed": true,
          "internalType": "address",
          "name": "owner",
          "type": "address"
        },
        {
          "indexed": true,
          "internalType": "address",
          "name": "operator",
          "type": "address"
        },
        {
          "indexed": false,
          "internalType": "bool",
          "name": "approved",
          "type": "bool"
        }
      ],
      "name": "ApprovalForAll",
      "type": "event"
    },
    {
      "anonymous": false,
      "inputs": [
        {
          "indexed": true,
          "internalType": "uint256",
          "name": "tokenId",
          "type": "uint256"
        },
        {
          "indexed": true,
          "internalType": "address",
          "name": "owner",
          "type": "address"
        }
      ],
      "name": "AssetBurned",
      "type": "event"
    },
    {
      "anonymous": false,
      "inputs": [
        {
          "indexed": true,
          "internalType": "uint256",
          "name": "tokenId",
          "type": "uint256"
        },
        {
          "indexed": false,
          "internalType": "string",
          "name": "newIpfsHash",
          "type": "string"
        }
      ],
      "name": "AssetMetadataUpdated",
      "type": "event"
    },
    {
      "anonymous": false,
      "inputs": [
        {
          "indexed": true,
          "internalType": "uint256",
          "name": "tokenId",
          "type": "uint256"
        },
        {
          "indexed": true,
          "internalType": "address",
          "name": "owner",
          "type": "address"
        },
        {
          "indexed": false,
          "internalType": "string",
          "name": "ipfsHash",
          "type": "string"
        },
        {
          "indexed": false,
          "internalType": "uint256",
          "name": "assetValue",
          "type": "uint256"
        }
      ],
      "name": "AssetMinted",
      "type": "event"
    },
    {
      "anonymous": false,
      "inputs": [
        {
          "indexed": true,
          "internalType": "uint256",
          "name": "tokenId",
          "type": "uint256"
        },
        {
          "indexed": false,
          "internalType": "uint256",
          "name": "oldValue",
          "type": "uint256"
        },
        {
          "indexed": false,
          "internalType": "uint256",
          "name": "newValue",
          "type": "uint256"
        }
      ],
      "name": "AssetValueUpdated",
      "type": "event"
    },
    {
      "anonymous": false,
      "inputs": [
        {
          "indexed": true,
          "internalType": "uint256",
          "name": "tokenId",
          "type": "uint256"
        },
        {
          "indexed": true,
          "internalType": "address",
          "name": "oracle",
          "type": "address"
        },
        {
          "indexed": false,
          "internalType": "uint256",
          "name": "timestamp",
          "type": "uint256"
        }
      ],
      "name": "AssetVerified",
      "type": "event"
    },
    {
      "anonymous": false,
      "inputs": [
        {
          "indexed": false,
          "internalType": "uint256",
          "name": "_fromTokenId",
          "type": "uint256"
        },
        {
          "indexed": false,
          "internalType": "uint256",
          "name": "_toTokenId",
          "type": "uint256"
        }
      ],
      "name": "BatchMetadataUpdate",
      "type": "event"
    },
    {
      "anonymous": false,
      "inputs": [
        {
          "indexed": true,
          "internalType": "address",
          "name": "beacon",
          "type": "address"
        }
      ],
      "name": "BeaconUpgraded",
      "type": "event"
    },
    {
      "anonymous": false,
      "inputs": [
        {
          "indexed": false,
          "internalType": "uint8",
          "name": "version",
          "type": "uint8"
        }
      ],
      "name": "Initialized",
      "type": "event"
    },
    {
      "anonymous": false,
      "inputs": [
        {
          "indexed": false,
          "internalType": "uint256",
          "name": "_tokenId",
          "type": "uint256"
        }
      ],
      "name": "MetadataUpdate",
      "type": "event"
    },
    {
      "anonymous": false,
      "inputs": [
        {
          "indexed": false,
          "internalType": "address",
          "name": "account",
          "type": "address"
        }
      ],
      "name": "Paused",
      "type": "event"
    },
    {
      "anonymous": false,
      "inputs": [
        {
          "indexed": true,
          "internalType": "bytes32",
          "name": "role",
          "type": "bytes32"
        },
        {
          "indexed": true,
          "internalType": "bytes32",
          "name": "previousAdminRole",
          "type": "bytes32"
        },
        {
          "indexed": true,
          "internalType": "bytes32",
          "name": "newAdminRole",
          "type": "bytes32"
        }
      ],
      "name": "RoleAdminChanged",
      "type": "event"
    },
    {
      "anonymous": false,
      "inputs": [
        {
          "indexed": true,
          "internalType": "bytes32",
          "name": "role",
          "type": "bytes32"
        },
        {
          "indexed": true,
          "internalType": "address",
          "name": "account",
          "type": "address"
        },
        {
          "indexed": true,
          "internalType": "address",
          "name": "sender",
          "type": "address"
        }
      ],
      "name": "RoleGranted",
      "type": "event"
    },
    {
      "anonymous": false,
      "inputs": [
        {
          "indexed": true,
          "internalType": "bytes32",
          "name": "role",
          "type": "bytes32"
        },
        {
          "indexed": true,
          "internalType": "address",
          "name": "account",
          "type": "address"
        },
        {
          "indexed": true,
          "internalType": "address",
          "name": "sender",
          "type": "address"
        }
      ],
      "name": "RoleRevoked",
      "type": "event"
    },
    {
      "anonymous": false,
      "inputs": [
        {
          "indexed": true,
          "internalType": "address",
          "name": "from",
          "type": "address"
        },
        {
          "indexed": true,
          "internalType": "address",
          "name": "to",
          "type": "address"
        },
        {
          "indexed": true,
          "internalType": "uint256",
          "name": "tokenId",
          "type": "uint256"
        }
      ],
      "name": "Transfer",
      "type": "event"
    },
    {
      "anonymous": false,
      "inputs": [
        {
          "indexed": false,
          "internalType": "address",
          "name": "account",
          "type": "address"
        }
      ],
      "name": "Unpaused",
      "type": "event"
    },
    {
      "anonymous": false,
      "inputs": [
        {
          "indexed": true,
          "internalType": "address",
          "name": "implementation",
          "type": "address"
        }
      ],
      "name": "Upgraded",
      "type": "event"
    },
    {
      "inputs": [],
      "name": "DEFAULT_ADMIN_ROLE",
      "outputs": [
        {
          "internalType": "bytes32",
          "name": "",
          "type": "bytes32"
        }
      ],
      "stateMutability": "view",
      "type": "function"
    },
    {
      "inputs": [],
      "name": "MINTER_ROLE",
      "outputs": [
        {
          "internalType": "bytes32",
          "name": "",
          "type": "bytes32"
        }
      ],
      "stateMutability": "view",
      "type": "function"
    },
    {
      "inputs": [],
      "name": "OPERATOR_ROLE",
      "outputs": [
        {
          "internalType": "bytes32",
          "name": "",
          "type": "bytes32"
        }
      ],
      "stateMutability": "view",
      "type": "function"
    },
    {
      "inputs": [],
      "name": "UPGRADER_ROLE",
      "outputs": [
        {
          "internalType": "bytes32",
          "name": "",
          "type": "bytes32"
        }
      ],
      "stateMutability": "view",
      "type": "function"
    },
    {
      "inputs": [
        {
          "internalType": "address",
          "name": "to",
          "type": "address"
        },
        {
          "internalType": "uint256",
          "name": "tokenId",
          "type": "uint256"
        }
      ],
      "name": "approve",
      "outputs": [],
      "stateMutability": "nonpayable",
      "type": "function"
    },
    {
      "inputs": [
        {
          "internalType": "uint256",
          "name": "",
          "type": "uint256"
        }
      ],
      "name": "assetMetadata",
      "outputs": [
        {
          "internalType": "string",
          "name": "ipfsHash",
          "type": "string"
        },
        {
          "internalType": "uint256",
          "name": "assetValue",
          "type": "uint256"
        },
        {
          "internalType": "uint256",
          "name": "createdAt",
          "type": "uint256"
        },
        {
          "internalType": "uint256",
          "name": "lastVerified",
          "type": "uint256"
        },
        {
          "internalType": "bool",
          "name": "isVerified",
          "type": "bool"
        },
        {
          "internalType": "address",
          "name": "oracle",
          "type": "address"
        }
      ],
      "stateMutability": "view",
      "type": "function"
    },
    {
      "inputs": [
        {
          "internalType": "address",
          "name": "owner",
          "type": "address"
        }
      ],
      "name": "balanceOf",
      "outputs": [
        {
          "internalType": "uint256",
          "name": "",
          "type": "uint256"
        }
      ],
      "stateMutability": "view",
      "type": "function"
    },
    {
      "inputs": [
        {
          "internalType": "uint256",
          "name": "tokenId",
          "type": "uint256"
        }
      ],
      "name": "burnAsset",
      "outputs": [],
      "stateMutability": "nonpayable",
      "type": "function"
    },
    {
      "inputs": [
        {
          "internalType": "uint256",
          "name": "tokenId",
          "type": "uint256"
        }
      ],
      "name": "getApproved",
      "outputs": [
        {
          "internalType": "address",
          "name": "",
          "type": "address"
        }
      ],
      "stateMutability": "view",
      "type": "function"
    },
    {
      "inputs": [
        {
          "internalType": "uint256",
          "name": "tokenId",
          "type": "uint256"
        }
      ],
      "name": "getAssetInfo",
      "outputs": [
        {
          "components": [
            {
              "internalType": "string",
              "name": "ipfsHash",
              "type": "string"
            },
            {
              "internalType": "uint256",
              "name": "assetValue",
              "type": "uint256"
            },
            {
              "internalType": "uint256",
              "name": "createdAt",
              "type": "uint256"
            },
            {
              "internalType": "uint256",
              "name": "lastVerified",
              "type": "uint256"
            },
            {
              "internalType": "bool",
              "name": "isVerified",
              "type": "bool"
            },
            {
              "internalType": "address",
              "name": "oracle",
              "type": "address"
            }
          ],
          "internalType": "struct AssetNFT.AssetMetadata",
          "name": "",
          "type": "tuple"
        }
      ],
      "stateMutability": "view",
      "type": "function"
    },
    {
      "inputs": [
        {
          "internalType": "bytes32",
          "name": "role",
          "type": "bytes32"
        }
      ],
      "name": "getRoleAdmin",
      "outputs": [
        {
          "internalType": "bytes32",
          "name": "",
          "type": "bytes32"
        }
      ],
      "stateMutability": "view",
      "type": "function"
    },
    {
      "inputs": [
        {
          "internalType": "bytes32",
          "name": "role",
          "type": "bytes32"
        },
        {
          "internalType": "address",
          "name": "account",
          "type": "address"
        }
      ],
      "name": "grantRole",
      "outputs": [],
      "stateMutability": "nonpayable",
      "type": "function"
    },
    {
      "inputs": [
        {
          "internalType": "bytes32",
          "name": "role",
          "type": "bytes32"
        },
        {
          "internalType": "address",
          "name": "account",
          "type": "address"
        }
      ],
      "name": "hasRole",
      "outputs": [
        {
          "internalType": "bool",
          "name": "",
          "type": "bool"
        }
      ],
      "stateMutability": "view",
      "type": "function"
    },
    {
      "inputs": [],
      "name": "initialize",
      "outputs": [],
      "stateMutability": "nonpayable",
      "type": "function"
    },
    {
      "inputs": [
        {
          "internalType": "address",
          "name": "owner",
          "type": "address"
        },
        {
          "internalType": "address",
          "name": "operator",
          "type": "address"
        }
      ],
      "name": "isApprovedForAll",
      "outputs": [
        {
          "internalType": "bool",
          "name": "",
          "type": "bool"
        }
      ],
      "stateMutability": "view",
      "type": "function"
    },
    {
      "inputs": [
        {
          "internalType": "uint256",
          "name": "",
          "type": "uint256"
        }
      ],
      "name": "isAssetActive",
      "outputs": [
        {
          "internalType": "bool",
          "name": "",
          "type": "bool"
        }
      ],
      "stateMutability": "view",
      "type": "function"
    },
    {
      "inputs": [
        {
          "internalType": "address",
          "name": "to",
          "type": "address"
        },
        {
          "internalType": "string",
          "name": "ipfsHash",
          "type": "string"
        },
        {
          "internalType": "uint256",
          "name": "assetValue",
          "type": "uint256"
        }
      ],
      "name": "mintAsset",
      "outputs": [
        {
          "internalType": "uint256",
          "name": "",
          "type": "uint256"
        }
      ],
      "stateMutability": "nonpayable",
      "type": "function"
    },
    {
      "inputs": [],
      "name": "name",
      "outputs": [
        {
          "internalType": "string",
          "name": "",
          "type": "string"
        }
      ],
      "stateMutability": "view",
      "type": "function"
    },
    {
      "inputs": [
        {
          "internalType": "uint256",
          "name": "tokenId",
          "type": "uint256"
        }
      ],
      "name": "ownerOf",
      "outputs": [
        {
          "internalType": "address",
          "name": "",
          "type": "address"
        }
      ],
      "stateMutability": "view",
      "type": "function"
    },
    {
      "inputs": [],
      "name": "pause",
      "outputs": [],
      "stateMutability": "nonpayable",
      "type": "function"
    },
    {
      "inputs": [],
      "name": "paused",
      "outputs": [
        {
          "internalType": "bool",
          "name": "",
          "type": "bool"
        }
      ],
      "stateMutability": "view",
      "type": "function"
    },
    {
      "inputs": [],
      "name": "proxiableUUID",
      "outputs": [
        {
          "internalType": "bytes32",
          "name": "",
          "type": "bytes32"
        }
      ],
      "stateMutability": "view",
      "type": "function"
    },
    {
      "inputs": [
        {
          "internalType": "bytes32",
          "name": "role",
          "type": "bytes32"
        },
        {
          "internalType": "address",
          "name": "account",
          "type": "address"
        }
      ],
      "name": "renounceRole",
      "outputs": [],
      "stateMutability": "nonpayable",
      "type": "function"
    },
    {
      "inputs": [
        {
          "internalType": "bytes32",
          "name": "role",
          "type": "bytes32"
        },
        {
          "internalType": "address",
          "name": "account",
          "type": "address"
        }
      ],
      "name": "revokeRole",
      "outputs": [],
      "stateMutability": "nonpayable",
      "type": "function"
    },
    {
      "inputs": [
        {
          "internalType": "address",
          "name": "from",
          "type": "address"
        },
        {
          "internalType": "address",
          "name": "to",
          "type": "address"
        },
        {
          "internalType": "uint256",
          "name": "tokenId",
          "type": "uint256"
        }
      ],
      "name": "safeTransferFrom",
      "outputs": [],
      "stateMutability": "nonpayable",
      "type": "function"
    },
    {
      "inputs": [
        {
          "internalType": "address",
          "name": "from",
          "type": "address"
        },
        {
          "internalType": "address",
          "name": "to",
          "type": "address"
        },
        {
          "internalType": "uint256",
          "name": "tokenId",
          "type": "uint256"
        },
        {
          "internalType": "bytes",
          "name": "data",
          "type": "bytes"
        }
      ],
      "name": "safeTransferFrom",
      "outputs": [],
      "stateMutability": "nonpayable",
      "type": "function"
    },
    {
      "inputs": [
        {
          "internalType": "address",
          "name": "operator",
          "type": "address"
        },
        {
          "internalType": "bool",
          "name": "approved",
          "type": "bool"
        }
      ],
      "name": "setApprovalForAll",
      "outputs": [],
      "stateMutability": "nonpayable",
      "type": "function"
    },
    {
      "inputs": [
        {
          "internalType": "bytes4",
          "name": "interfaceId",
          "type": "bytes4"
        }
      ],
      "name": "supportsInterface",
      "outputs": [
        {
          "internalType": "bool",
          "name": "",
          "type": "bool"
        }
      ],
      "stateMutability": "view",
      "type": "function"
    },
    {
      "inputs": [],
      "name": "symbol",
      "outputs": [
        {
          "internalType": "string",
          "name": "",
          "type": "string"
        }
      ],
      "stateMutability": "view",
      "type": "function"
    },
    {
      "inputs": [
        {
          "internalType": "uint256",
          "name": "index",
          "type": "uint256"
        }
      ],
      "name": "tokenByIndex",
      "outputs": [
        {
          "internalType": "uint256",
          "name": "",
          "type": "uint256"
        }
      ],
      "stateMutability": "view",
      "type": "function"
    },
    {
      "inputs": [
        {
          "internalType": "address",
          "name": "owner",
          "type": "address"
        },
        {
          "internalType": "uint256",
          "name": "index",
          "type": "uint256"
        }
      ],
      "name": "tokenOfOwnerByIndex",
      "outputs": [
        {
          "internalType": "uint256",
          "name": "",
          "type": "uint256"
        }
      ],
      "stateMutability": "view",
      "type": "function"
    },
    {
      "inputs": [
        {
          "internalType": "uint256",
          "name": "tokenId",
          "type": "uint256"
        }
      ],
      "name": "tokenURI",
      "outputs": [
        {
          "internalType": "string",
          "name": "",
          "type": "string"
        }
      ],
      "stateMutability": "view",
      "type": "function"
    },
    {
      "inputs": [],
      "name": "totalSupply",
      "outputs": [
        {
          "internalType": "uint256",
          "name": "",
          "type": "uint256"
        }
      ],
      "stateMutability": "view",
      "type": "function"
    },
    {
      "inputs": [
        {
          "internalType": "address",
          "name": "from",
          "type": "address"
        },
        {
          "internalType": "address",
          "name": "to",
          "type": "address"
        },
        {
          "internalType": "uint256",
          "name": "tokenId",
          "type": "uint256"
        }
      ],
      "name": "transferFrom",
      "outputs": [],
      "stateMutability": "nonpayable",
      "type": "function"
    },
    {
      "inputs": [],
      "name": "unpause",
      "outputs": [],
      "stateMutability": "nonpayable",
      "type": "function"
    },
    {
      "inputs": [
        {
          "internalType": "uint256",
          "name": "tokenId",
          "type": "uint256"
        },
        {
          "internalType": "string",
          "name": "newIpfsHash",
          "type": "string"
        }
      ],
      "name": "updateAssetMetadata",
      "outputs": [],
      "stateMutability": "nonpayable",
      "type": "function"
    },
    {
      "inputs": [
        {
          "internalType": "uint256",
          "name": "tokenId",
          "type": "uint256"
        },
        {
          "internalType": "uint256",
          "name": "newValue",
          "type": "uint256"
        }
      ],
      "name": "updateAssetValue",
      "outputs": [],
      "stateMutability": "nonpayable",
      "type": "function"
    },
    {
      "inputs": [
        {
          "internalType": "address",
          "name": "newImplementation",
          "type": "address"
        }
      ],
      "name": "upgradeTo",
      "outputs": [],
      "stateMutability": "nonpayable",
      "type": "function"
    },
    {
      "inputs": [
        {
          "internalType": "address",
          "name": "newImplementation",
          "type": "address"
        },
        {
          "internalType": "bytes",
          "name": "data",
          "type": "bytes"
        }
      ],
      "name": "upgradeToAndCall",
      "outputs": [],
      "stateMutability": "payable",
      "type": "function"
    },
    {
      "inputs": [
        {
          "internalType": "uint256",
          "name": "tokenId",
          "type": "uint256"
        }
      ],
      "name": "verifyAsset",
      "outputs": [],
      "stateMutability": "nonpayable",
      "type": "function"
    }
  ],
  "bytecode": "0x60a0604052306080523480156200001557600080fd5b506200002062000026565b620000e7565b600054610100900460ff1615620000935760405162461bcd60e51b815260206004820152602760248201527f496e697469616c697a61626c653a20636f6e747261637420697320696e697469604482015266616c697a696e6760c81b606482015260840160405180910390fd5b60005460ff90811614620000e5576000805460ff191660ff9081179091556040519081527f7f26b83ff96e1f2b6a682f133852f6798a09c465da95921460cefb38474024989060200160405180910390a15b565b608051613be86200011f60003960008181610b0501528181610b4501528181610c1f01528181610c5f0152610e4c0152613be86000f3fe60806040526004361061023b5760003560e01c806360c4dce31161012e578063b88d4fde116100ab578063e985e9c51161006f578063e985e9c5146106c1578063f1f428ce1461070a578063f5b541a61461072a578063f637d9501461074c578063f72c0d8b1461077957600080fd5b8063b88d4fde1461060d578063c87b56dd1461062d578063d53913931461064d578063d547741f14610681578063e0020f3a146106a157600080fd5b80638f08d44d116100f25780638f08d44d1461058357806391d14854146105a357806395d89b41146105c3578063a217fddf146105d8578063a22cb465146105ed57600080fd5b806360c4dce3146104f95780636352211e1461051957806370a08231146105395780638129fc1c146105595780638456cb591461056e57600080fd5b806336568abe116101bc5780634f6ccce7116101805780634f6ccce714610459578063504e35d31461047957806352d1902d146104ab57806359fd285c146104c05780635c975abb146104e057600080fd5b806336568abe146103d15780633659cfe6146103f15780633f4ba83a1461041157806342842e0e146104265780634f1ef2861461044657600080fd5b806322e900c21161020357806322e900c21461031057806323b872dd14610341578063248a9ca3146103615780632f2ff15d146103915780632f745c59146103b157600080fd5b806301ffc9a71461024057806306fdde0314610275578063081812fc14610297578063095ea7b3146102cf57806318160ddd146102f1575b600080fd5b34801561024c57600080fd5b5061026061025b366004613195565b6107ad565b60405190151581526020015b60405180910390f35b34801561028157600080fd5b5061028a6107be565b60405161026c9190613202565b3480156102a357600080fd5b506102b76102b2366004613215565b610850565b6040516001600160a01b03909116815260200161026c565b3480156102db57600080fd5b506102ef6102ea36600461324a565b610877565b005b3480156102fd57600080fd5b5060cb545b60405190815260200161026c565b34801561031c57600080fd5b5061026061032b366004613215565b6101c56020526000908152604090205460ff1681565b34801561034d57600080fd5b506102ef61035c366004613274565b610991565b34801561036d57600080fd5b5061030261037c366004613215565b600090815260fb602052604090206001015490565b34801561039d57600080fd5b506102ef6103ac3660046132b0565b6109c2565b3480156103bd57600080fd5b506103026103cc36600461324a565b6109e7565b3480156103dd57600080fd5b506102ef6103ec3660046132b0565b610a7d565b3480156103fd57600080fd5b506102ef61040c3660046132dc565b610afb565b34801561041d57600080fd5b506102ef610bda565b34801561043257600080fd5b506102ef610441366004613274565b610bfa565b6102ef61045436600461339a565b610c15565b34801561046557600080fd5b50610302610474366004613215565b610ce1565b34801561048557600080fd5b50610499610494366004613215565b610d74565b60405161026c969594939291906133e8565b3480156104b757600080fd5b50610302610e3f565b3480156104cc57600080fd5b506102ef6104db366004613215565b610ef2565b3480156104ec57600080fd5b5061012d5460ff16610260565b34801561050557600080fd5b506102ef61051436600461342f565b610fa2565b34801561052557600080fd5b506102b7610534366004613215565b61108a565b34801561054557600080fd5b506103026105543660046132dc565b6110ea565b34801561056557600080fd5b506102ef611170565b34801561057a57600080fd5b506102ef611366565b34801561058f57600080fd5b506102ef61059e366004613215565b611386565b3480156105af57600080fd5b506102606105be3660046132b0565b61146b565b3480156105cf57600080fd5b5061028a611496565b3480156105e457600080fd5b50610302600081565b3480156105f957600080fd5b506102ef610608366004613451565b6114a5565b34801561061957600080fd5b506102ef61062836600461348d565b6114b0565b34801561063957600080fd5b5061028a610648366004613215565b6114e8565b34801561065957600080fd5b506103027f9f2df0fed2c77648de5860a4cc508cd0818c85b8b8a1ab4ceeef8d981c8956a681565b34801561068d57600080fd5b506102ef61069c3660046132b0565b6114f3565b3480156106ad57600080fd5b506103026106bc3660046134f5565b611518565b3480156106cd57600080fd5b506102606106dc36600461354c565b6001600160a01b039182166000908152606a6020908152604080832093909416825291909152205460ff1690565b34801561071657600080fd5b506102ef610725366004613576565b61173d565b34801561073657600080fd5b50610302600080516020613b6c83398151915281565b34801561075857600080fd5b5061076c610767366004613215565b61182c565b60405161026c91906135a7565b34801561078557600080fd5b506103027f189ab7a9244df0848122154315af71fe140f3db0fe014031783b0946b8c9d2e381565b60006107b882611988565b92915050565b6060606580546107cd9061360b565b80601f01602080910402602001604051908101604052809291908181526020018280546107f99061360b565b80156108465780601f1061081b57610100808354040283529160200191610846565b820191906000526020600020905b81548152906001019060200180831161082957829003601f168201915b5050505050905090565b600061085b826119ad565b506000908152606960205260409020546001600160a01b031690565b60006108828261108a565b9050806001600160a01b0316836001600160a01b0316036108f45760405162461bcd60e51b815260206004820152602160248201527f4552433732313a20617070726f76616c20746f2063757272656e74206f776e656044820152603960f91b60648201526084015b60405180910390fd5b336001600160a01b0382161480610910575061091081336106dc565b6109825760405162461bcd60e51b815260206004820152603d60248201527f4552433732313a20617070726f76652063616c6c6572206973206e6f7420746f60448201527f6b656e206f776e6572206f7220617070726f76656420666f7220616c6c00000060648201526084016108eb565b61098c83836119fd565b505050565b61099b3382611a6b565b6109b75760405162461bcd60e51b81526004016108eb90613645565b61098c838383611aea565b600082815260fb60205260409020600101546109dd81611c5b565b61098c8383611c65565b60006109f2836110ea565b8210610a545760405162461bcd60e51b815260206004820152602b60248201527f455243373231456e756d657261626c653a206f776e657220696e646578206f7560448201526a74206f6620626f756e647360a81b60648201526084016108eb565b506001600160a01b0391909116600090815260c960209081526040808320938352929052205490565b6001600160a01b0381163314610aed5760405162461bcd60e51b815260206004820152602f60248201527f416363657373436f6e74726f6c3a2063616e206f6e6c792072656e6f756e636560448201526e103937b632b9903337b91039b2b63360891b60648201526084016108eb565b610af78282611ceb565b5050565b6001600160a01b037f0000000000000000000000000000000000000000000000000000000000000000163003610b435760405162461bcd60e51b81526004016108eb90613692565b7f00000000000000000000000000000000000000000000000000000000000000006001600160a01b0316610b8c600080516020613b4c833981519152546001600160a01b031690565b6001600160a01b031614610bb25760405162461bcd60e51b81526004016108eb906136de565b610bbb81611d52565b60408051600080825260208201909252610bd791839190611d7c565b50565b600080516020613b6c833981519152610bf281611c5b565b610bd7611ee7565b61098c838383604051806020016040528060008152506114b0565b6001600160a01b037f0000000000000000000000000000000000000000000000000000000000000000163003610c5d5760405162461bcd60e51b81526004016108eb90613692565b7f00000000000000000000000000000000000000000000000000000000000000006001600160a01b0316610ca6600080516020613b4c833981519152546001600160a01b031690565b6001600160a01b031614610ccc5760405162461bcd60e51b81526004016108eb906136de565b610cd582611d52565b610af782826001611d7c565b6000610cec60cb5490565b8210610d4f5760405162461bcd60e51b815260206004820152602c60248201527f455243373231456e756d657261626c653a20676c6f62616c20696e646578206f60448201526b7574206f6620626f756e647360a01b60648201526084016108eb565b60cb8281548110610d6257610d6261372a565b90600052602060002001549050919050565b6101c460205260009081526040902080548190610d909061360b565b80601f0160208091040260200160405190810160405280929190818152602001828054610dbc9061360b565b8015610e095780601f10610dde57610100808354040283529160200191610e09565b820191906000526020600020905b815481529060010190602001808311610dec57829003601f168201915b505050506001830154600284015460038501546004909501549394919390925060ff81169061010090046001600160a01b031686565b6000306001600160a01b037f00000000000000000000000000000000000000000000000000000000000000001614610edf5760405162461bcd60e51b815260206004820152603860248201527f555550535570677261646561626c653a206d757374206e6f742062652063616c60448201527f6c6564207468726f7567682064656c656761746563616c6c000000000000000060648201526084016108eb565b50600080516020613b4c83398151915290565b600080516020613b6c833981519152610f0a81611c5b565b610f1382611f3a565b610f2f5760405162461bcd60e51b81526004016108eb90613740565b60008281526101c460209081526040918290206004810180544260039093018390556001600160a81b0319166101003390810291909117600117909155925190815284917f544b8444649e9879c52d49dca9e424d8dee158377a5bcd991acb8fc9ba4d231c910160405180910390a35050565b600080516020613b6c833981519152610fba81611c5b565b610fc383611f3a565b610fdf5760405162461bcd60e51b81526004016108eb90613740565b6000821161102f5760405162461bcd60e51b815260206004820181905260248201527f41737365744e46543a2056616c7565206d75737420626520706f73697469766560448201526064016108eb565b60008381526101c4602090815260409182902060010180549085905582518181529182018590529185917f151b3a78795c707eff48f31606a09e1213aff636c47901555df889c1c2b34515910160405180910390a250505050565b6000818152606760205260408120546001600160a01b0316806107b85760405162461bcd60e51b8152602060048201526018602482015277115490cdcc8c4e881a5b9d985b1a59081d1bdad95b88125160421b60448201526064016108eb565b60006001600160a01b0382166111545760405162461bcd60e51b815260206004820152602960248201527f4552433732313a2061646472657373207a65726f206973206e6f7420612076616044820152683634b21037bbb732b960b91b60648201526084016108eb565b506001600160a01b031660009081526068602052604090205490565b600054610100900460ff16158080156111905750600054600160ff909116105b806111aa5750303b1580156111aa575060005460ff166001145b61120d5760405162461bcd60e51b815260206004820152602e60248201527f496e697469616c697a61626c653a20636f6e747261637420697320616c72656160448201526d191e481a5b9a5d1a585b1a5e995960921b60648201526084016108eb565b6000805460ff191660011790558015611230576000805461ff0019166101001790555b6112796040518060400160405280600b81526020016a417373657472612052574160a81b815250604051806040016040528060048152602001634152574160e01b815250611f57565b611281611f88565b611289611f88565b611291611f88565b611299611fb1565b6112a1611f88565b6112ac600033611c65565b6112d67f9f2df0fed2c77648de5860a4cc508cd0818c85b8b8a1ab4ceeef8d981c8956a633611c65565b6113007f189ab7a9244df0848122154315af71fe140f3db0fe014031783b0946b8c9d2e333611c65565b611318600080516020613b6c83398151915233611c65565b60016101c3558015610bd7576000805461ff0019169055604051600181527f7f26b83ff96e1f2b6a682f133852f6798a09c465da95921460cefb38474024989060200160405180910390a150565b600080516020613b6c83398151915261137e81611c5b565b610bd7611fe0565b336113908261108a565b6001600160a01b031614806113b857506113b8600080516020613b6c8339815191523361146b565b6114045760405162461bcd60e51b815260206004820181905260248201527f41737365744e46543a204e6f7420617574686f72697a656420746f206275726e60448201526064016108eb565b600061140f8261108a565b60008381526101c560205260409020805460ff1916905590506114318261201e565b6040516001600160a01b0382169083907fefb2d9915fdbc2714cdc6771e2791877d24c2b3426b096a8be565adb7b3774d390600090a35050565b600091825260fb602090815260408084206001600160a01b0393909316845291905290205460ff1690565b6060606680546107cd9061360b565b610af7338383612027565b6114ba3383611a6b565b6114d65760405162461bcd60e51b81526004016108eb90613645565b6114e2848484846120f5565b50505050565b60606107b882612128565b600082815260fb602052604090206001015461150e81611c5b565b61098c8383611ceb565b60007f9f2df0fed2c77648de5860a4cc508cd0818c85b8b8a1ab4ceeef8d981c8956a661154481611c5b565b61154c612230565b600084511161159d5760405162461bcd60e51b815260206004820152601c60248201527f41737365744e46543a204950465320686173682072657175697265640000000060448201526064016108eb565b600083116115fc5760405162461bcd60e51b815260206004820152602660248201527f41737365744e46543a2041737365742076616c7565206d75737420626520706f60448201526573697469766560d01b60648201526084016108eb565b6101c380546000918261160e8361378d565b91905055905061161e8682612277565b6116288186612291565b6040805160c081018252868152602080820187905242828401526000606083018190526080830181905260a083018190528481526101c4909152919091208151819061167490826137f4565b5060208281015160018381019190915560408085015160028501556060850151600385015560808501516004909401805460a0909601516001600160a81b0319909616941515610100600160a81b031916949094176101006001600160a01b03968716021790935560008581526101c590925290829020805460ff19169091179055519087169082907f547a0605917937829f968c64484ab42901fa23cf9bdd38b5c28bd707a180dbc89061172c90899089906138b4565b60405180910390a395945050505050565b600080516020613b6c83398151915261175581611c5b565b61175e83611f3a565b61177a5760405162461bcd60e51b81526004016108eb90613740565b60008251116117cb5760405162461bcd60e51b815260206004820152601c60248201527f41737365744e46543a204950465320686173682072657175697265640000000060448201526064016108eb565b60008381526101c4602052604090206117e483826137f4565b506117ef8383612291565b827fb24c12af46d9d1b315bd362fc4e303af4f63e4dcea5761c8ddd6da7abb9d90598360405161181f9190613202565b60405180910390a2505050565b6118706040518060c001604052806060815260200160008152602001600081526020016000815260200160001515815260200160006001600160a01b031681525090565b61187982611f3a565b6118955760405162461bcd60e51b81526004016108eb90613740565b60008281526101c4602052604090819020815160c081019092528054829082906118be9061360b565b80601f01602080910402602001604051908101604052809291908181526020018280546118ea9061360b565b80156119375780601f1061190c57610100808354040283529160200191611937565b820191906000526020600020905b81548152906001019060200180831161191a57829003601f168201915b505050918352505060018201546020820152600282015460408201526003820154606082015260049091015460ff81161515608083015261010090046001600160a01b031660a09091015292915050565b60006001600160e01b03198216637965db0b60e01b14806107b857506107b88261234d565b6119b681611f3a565b610bd75760405162461bcd60e51b8152602060048201526018602482015277115490cdcc8c4e881a5b9d985b1a59081d1bdad95b88125160421b60448201526064016108eb565b600081815260696020526040902080546001600160a01b0319166001600160a01b0384169081179091558190611a328261108a565b6001600160a01b03167f8c5be1e5ebec7d5bd14f71427d1e84f3dd0314c0f7b2291e5b200ac8c7c3b92560405160405180910390a45050565b600080611a778361108a565b9050806001600160a01b0316846001600160a01b03161480611abe57506001600160a01b038082166000908152606a602090815260408083209388168352929052205460ff165b80611ae25750836001600160a01b0316611ad784610850565b6001600160a01b0316145b949350505050565b826001600160a01b0316611afd8261108a565b6001600160a01b031614611b235760405162461bcd60e51b81526004016108eb906138d6565b6001600160a01b038216611b855760405162461bcd60e51b8152602060048201526024808201527f4552433732313a207472616e7366657220746f20746865207a65726f206164646044820152637265737360e01b60648201526084016108eb565b611b928383836001612372565b826001600160a01b0316611ba58261108a565b6001600160a01b031614611bcb5760405162461bcd60e51b81526004016108eb906138d6565b600081815260696020908152604080832080546001600160a01b03199081169091556001600160a01b0387811680865260688552838620805460001901905590871680865283862080546001019055868652606790945282852080549092168417909155905184937fddf252ad1be2c89b69c2b068fc378daa952ba7f163c4a11628f55a4df523b3ef91a4505050565b610bd78133612386565b611c6f828261146b565b610af757600082815260fb602090815260408083206001600160a01b03851684529091529020805460ff19166001179055611ca73390565b6001600160a01b0316816001600160a01b0316837f2f8788117e7eff1d82e926ec794901d17c78024a50270940304540a733656f0d60405160405180910390a45050565b611cf5828261146b565b15610af757600082815260fb602090815260408083206001600160a01b0385168085529252808320805460ff1916905551339285917ff6391f5c32d9c69d2a47ea670b442974b53935d1edc7fd64eb21e047a839171b9190a45050565b7f189ab7a9244df0848122154315af71fe140f3db0fe014031783b0946b8c9d2e3610af781611c5b565b7f4910fdfa16fed3260ed0e7147f7cc6da11a60208b5b9406d12a635614ffd91435460ff1615611daf5761098c836123df565b826001600160a01b03166352d1902d6040518163ffffffff1660e01b8152600401602060405180830381865afa925050508015611e09575060408051601f3d908101601f19168201909252611e069181019061391b565b60015b611e6c5760405162461bcd60e51b815260206004820152602e60248201527f45524331393637557067726164653a206e657720696d706c656d656e7461746960448201526d6f6e206973206e6f74205555505360901b60648201526084016108eb565b600080516020613b4c8339815191528114611edb5760405162461bcd60e51b815260206004820152602960248201527f45524331393637557067726164653a20756e737570706f727465642070726f786044820152681a58589b195555525160ba1b60648201526084016108eb565b5061098c83838361247b565b611eef6124a0565b61012d805460ff191690557f5db9ee0a495bf2e6ff9c91a7834c1ba4fdd244a5e8aa4e537bd38aeae4b073aa335b6040516001600160a01b03909116815260200160405180910390a1565b6000908152606760205260409020546001600160a01b0316151590565b600054610100900460ff16611f7e5760405162461bcd60e51b81526004016108eb90613934565b610af782826124ea565b600054610100900460ff16611faf5760405162461bcd60e51b81526004016108eb90613934565b565b600054610100900460ff16611fd85760405162461bcd60e51b81526004016108eb90613934565b611faf61252a565b611fe8612230565b61012d805460ff191660011790557f62e78cea01bee320cd4e420270b5ea74000d11b0c9f74754ebdbfc544b05a258611f1d3390565b610bd78161255e565b816001600160a01b0316836001600160a01b0316036120885760405162461bcd60e51b815260206004820152601960248201527f4552433732313a20617070726f766520746f2063616c6c65720000000000000060448201526064016108eb565b6001600160a01b038381166000818152606a6020908152604080832094871680845294825291829020805460ff191686151590811790915591519182527f17307eab39ab6107e8899845ad3d59bd9653f200f220920489ca2b5937696c31910160405180910390a3505050565b612100848484611aea565b61210c8484848461259e565b6114e25760405162461bcd60e51b81526004016108eb9061397f565b6060612133826119ad565b6000828152609760205260408120805461214c9061360b565b80601f01602080910402602001604051908101604052809291908181526020018280546121789061360b565b80156121c55780601f1061219a576101008083540402835291602001916121c5565b820191906000526020600020905b8154815290600101906020018083116121a857829003601f168201915b5050505050905060006121e360408051602081019091526000815290565b905080516000036121f5575092915050565b81511561222757808260405160200161220f9291906139d1565b60405160208183030381529060405292505050919050565b611ae28461269f565b61012d5460ff1615611faf5760405162461bcd60e51b815260206004820152601060248201526f14185d5cd8589b194e881c185d5cd95960821b60448201526064016108eb565b610af7828260405180602001604052806000815250612713565b61229a82611f3a565b6122fd5760405162461bcd60e51b815260206004820152602e60248201527f45524337323155524953746f726167653a2055524920736574206f66206e6f6e60448201526d32bc34b9ba32b73a103a37b5b2b760911b60648201526084016108eb565b600082815260976020526040902061231582826137f4565b506040518281527ff8e1a15aba9398e019f0b49df1a4fde98ee17ae345cb5f6b5e2c27f5033e8ce79060200160405180910390a15050565b60006001600160e01b0319821663780e9d6360e01b14806107b857506107b882612746565b61237a612230565b6114e28484848461276b565b612390828261146b565b610af75761239d8161289f565b6123a88360206128b1565b6040516020016123b9929190613a00565b60408051601f198184030181529082905262461bcd60e51b82526108eb91600401613202565b6001600160a01b0381163b61244c5760405162461bcd60e51b815260206004820152602d60248201527f455243313936373a206e657720696d706c656d656e746174696f6e206973206e60448201526c1bdd08184818dbdb9d1c9858dd609a1b60648201526084016108eb565b600080516020613b4c83398151915280546001600160a01b0319166001600160a01b0392909216919091179055565b61248483612a4d565b6000825111806124915750805b1561098c576114e28383612a8d565b61012d5460ff16611faf5760405162461bcd60e51b815260206004820152601460248201527314185d5cd8589b194e881b9bdd081c185d5cd95960621b60448201526064016108eb565b600054610100900460ff166125115760405162461bcd60e51b81526004016108eb90613934565b606561251d83826137f4565b50606661098c82826137f4565b600054610100900460ff166125515760405162461bcd60e51b81526004016108eb90613934565b61012d805460ff19169055565b61256781612ab2565b600081815260976020526040902080546125809061360b565b159050610bd7576000818152609760205260408120610bd791613131565b60006001600160a01b0384163b1561269457604051630a85bd0160e11b81526001600160a01b0385169063150b7a02906125e2903390899088908890600401613a75565b6020604051808303816000875af192505050801561261d575060408051601f3d908101601f1916820190925261261a91810190613aa8565b60015b61267a573d80801561264b576040519150601f19603f3d011682016040523d82523d6000602084013e612650565b606091505b5080516000036126725760405162461bcd60e51b81526004016108eb9061397f565b805181602001fd5b6001600160e01b031916630a85bd0160e11b149050611ae2565b506001949350505050565b60606126aa826119ad565b60006126c160408051602081019091526000815290565b905060008151116126e1576040518060200160405280600081525061270c565b806126eb84612b55565b6040516020016126fc9291906139d1565b6040516020818303038152906040525b9392505050565b61271d8383612be8565b61272a600084848461259e565b61098c5760405162461bcd60e51b81526004016108eb9061397f565b60006001600160e01b03198216632483248360e11b14806107b857506107b882612d63565b60018111156127da5760405162461bcd60e51b815260206004820152603560248201527f455243373231456e756d657261626c653a20636f6e7365637574697665207472604482015274185b9cd9995c9cc81b9bdd081cdd5c1c1bdc9d1959605a1b60648201526084016108eb565b816001600160a01b038516612836576128318160cb8054600083815260cc60205260408120829055600182018355919091527fa7ce836d032b2bf62b7e2097a8e0a6d8aeb35405ad15271e96d3b0188a1d06fb0155565b612859565b836001600160a01b0316856001600160a01b031614612859576128598582612db3565b6001600160a01b0384166128755761287081612e50565b612898565b846001600160a01b0316846001600160a01b031614612898576128988482612eff565b5050505050565b60606107b86001600160a01b03831660145b606060006128c0836002613ac5565b6128cb906002613adc565b67ffffffffffffffff8111156128e3576128e36132f7565b6040519080825280601f01601f19166020018201604052801561290d576020820181803683370190505b509050600360fc1b816000815181106129285761292861372a565b60200101906001600160f81b031916908160001a905350600f60fb1b816001815181106129575761295761372a565b60200101906001600160f81b031916908160001a905350600061297b846002613ac5565b612986906001613adc565b90505b60018111156129fe576f181899199a1a9b1b9c1cb0b131b232b360811b85600f16601081106129ba576129ba61372a565b1a60f81b8282815181106129d0576129d061372a565b60200101906001600160f81b031916908160001a90535060049490941c936129f781613aef565b9050612989565b50831561270c5760405162461bcd60e51b815260206004820181905260248201527f537472696e67733a20686578206c656e67746820696e73756666696369656e7460448201526064016108eb565b612a56816123df565b6040516001600160a01b038216907fbc7cd75a20ee27fd9adebab32041f755214dbc6bffa90cc0225b39da2e5c2d3b90600090a250565b606061270c8383604051806060016040528060278152602001613b8c60279139612f43565b6000612abd8261108a565b9050612acd816000846001612372565b612ad68261108a565b600083815260696020908152604080832080546001600160a01b03199081169091556001600160a01b0385168085526068845282852080546000190190558785526067909352818420805490911690555192935084927fddf252ad1be2c89b69c2b068fc378daa952ba7f163c4a11628f55a4df523b3ef908390a45050565b60606000612b6283612fbb565b600101905060008167ffffffffffffffff811115612b8257612b826132f7565b6040519080825280601f01601f191660200182016040528015612bac576020820181803683370190505b5090508181016020015b600019016f181899199a1a9b1b9c1cb0b131b232b360811b600a86061a8153600a8504945084612bb657509392505050565b6001600160a01b038216612c3e5760405162461bcd60e51b815260206004820181905260248201527f4552433732313a206d696e7420746f20746865207a65726f206164647265737360448201526064016108eb565b612c4781611f3a565b15612c945760405162461bcd60e51b815260206004820152601c60248201527f4552433732313a20746f6b656e20616c7265616479206d696e7465640000000060448201526064016108eb565b612ca2600083836001612372565b612cab81611f3a565b15612cf85760405162461bcd60e51b815260206004820152601c60248201527f4552433732313a20746f6b656e20616c7265616479206d696e7465640000000060448201526064016108eb565b6001600160a01b038216600081815260686020908152604080832080546001019055848352606790915280822080546001600160a01b0319168417905551839291907fddf252ad1be2c89b69c2b068fc378daa952ba7f163c4a11628f55a4df523b3ef908290a45050565b60006001600160e01b031982166380ac58cd60e01b1480612d9457506001600160e01b03198216635b5e139f60e01b145b806107b857506301ffc9a760e01b6001600160e01b03198316146107b8565b60006001612dc0846110ea565b612dca9190613b06565b600083815260ca6020526040902054909150808214612e1d576001600160a01b038416600090815260c960209081526040808320858452825280832054848452818420819055835260ca90915290208190555b50600091825260ca602090815260408084208490556001600160a01b03909416835260c981528383209183525290812055565b60cb54600090612e6290600190613b06565b600083815260cc602052604081205460cb8054939450909284908110612e8a57612e8a61372a565b906000526020600020015490508060cb8381548110612eab57612eab61372a565b600091825260208083209091019290925582815260cc909152604080822084905585825281205560cb805480612ee357612ee3613b19565b6001900381819060005260206000200160009055905550505050565b6000612f0a836110ea565b6001600160a01b03909316600090815260c960209081526040808320868452825280832085905593825260ca9052919091209190915550565b6060600080856001600160a01b031685604051612f609190613b2f565b600060405180830381855af49150503d8060008114612f9b576040519150601f19603f3d011682016040523d82523d6000602084013e612fa0565b606091505b5091509150612fb186838387613093565b9695505050505050565b60008072184f03e93ff9f4daa797ed6e38ed64bf6a1f0160401b8310612ffa5772184f03e93ff9f4daa797ed6e38ed64bf6a1f0160401b830492506040015b6d04ee2d6d415b85acef81000000008310613026576d04ee2d6d415b85acef8100000000830492506020015b662386f26fc10000831061304457662386f26fc10000830492506010015b6305f5e100831061305c576305f5e100830492506008015b612710831061307057612710830492506004015b60648310613082576064830492506002015b600a83106107b85760010192915050565b606083156131025782516000036130fb576001600160a01b0385163b6130fb5760405162461bcd60e51b815260206004820152601d60248201527f416464726573733a2063616c6c20746f206e6f6e2d636f6e747261637400000060448201526064016108eb565b5081611ae2565b611ae283838151156131175781518083602001fd5b8060405162461bcd60e51b81526004016108eb9190613202565b50805461313d9061360b565b6000825580601f1061314d575050565b601f016020900490600052602060002090810190610bd791905b8082111561317b5760008155600101613167565b5090565b6001600160e01b031981168114610bd757600080fd5b6000602082840312156131a757600080fd5b813561270c8161317f565b60005b838110156131cd5781810151838201526020016131b5565b50506000910152565b600081518084526131ee8160208601602086016131b2565b601f01601f19169290920160200192915050565b60208152600061270c60208301846131d6565b60006020828403121561322757600080fd5b5035919050565b80356001600160a01b038116811461324557600080fd5b919050565b6000806040838503121561325d57600080fd5b6132668361322e565b946020939093013593505050565b60008060006060848603121561328957600080fd5b6132928461322e565b92506132a06020850161322e565b9150604084013590509250925092565b600080604083850312156132c357600080fd5b823591506132d36020840161322e565b90509250929050565b6000602082840312156132ee57600080fd5b61270c8261322e565b634e487b7160e01b600052604160045260246000fd5b600082601f83011261331e57600080fd5b813567ffffffffffffffff80821115613339576133396132f7565b604051601f8301601f19908116603f01168101908282118183101715613361576133616132f7565b8160405283815286602085880101111561337a57600080fd5b836020870160208301376000602085830101528094505050505092915050565b600080604083850312156133ad57600080fd5b6133b68361322e565b9150602083013567ffffffffffffffff8111156133d257600080fd5b6133de8582860161330d565b9150509250929050565b60c0815260006133fb60c08301896131d6565b60208301979097525060408101949094526060840192909252151560808301526001600160a01b031660a090910152919050565b6000806040838503121561344257600080fd5b50508035926020909101359150565b6000806040838503121561346457600080fd5b61346d8361322e565b91506020830135801515811461348257600080fd5b809150509250929050565b600080600080608085870312156134a357600080fd5b6134ac8561322e565b93506134ba6020860161322e565b925060408501359150606085013567ffffffffffffffff8111156134dd57600080fd5b6134e98782880161330d565b91505092959194509250565b60008060006060848603121561350a57600080fd5b6135138461322e565b9250602084013567ffffffffffffffff81111561352f57600080fd5b61353b8682870161330d565b925050604084013590509250925092565b6000806040838503121561355f57600080fd5b6135688361322e565b91506132d36020840161322e565b6000806040838503121561358957600080fd5b82359150602083013567ffffffffffffffff8111156133d257600080fd5b602081526000825160c060208401526135c360e08401826131d6565b90506020840151604084015260408401516060840152606084015160808401526080840151151560a084015260018060a01b0360a08501511660c08401528091505092915050565b600181811c9082168061361f57607f821691505b60208210810361363f57634e487b7160e01b600052602260045260246000fd5b50919050565b6020808252602d908201527f4552433732313a2063616c6c6572206973206e6f7420746f6b656e206f776e6560408201526c1c881bdc88185c1c1c9bdd9959609a1b606082015260800190565b6020808252602c908201527f46756e6374696f6e206d7573742062652063616c6c6564207468726f7567682060408201526b19195b1959d85d1958d85b1b60a21b606082015260800190565b6020808252602c908201527f46756e6374696f6e206d7573742062652063616c6c6564207468726f7567682060408201526b6163746976652070726f787960a01b606082015260800190565b634e487b7160e01b600052603260045260246000fd5b6020808252601e908201527f41737365744e46543a20417373657420646f6573206e6f742065786973740000604082015260600190565b634e487b7160e01b600052601160045260246000fd5b60006001820161379f5761379f613777565b5060010190565b601f82111561098c57600081815260208120601f850160051c810160208610156137cd5750805b601f850160051c820191505b818110156137ec578281556001016137d9565b505050505050565b815167ffffffffffffffff81111561380e5761380e6132f7565b6138228161381c845461360b565b846137a6565b602080601f831160018114613857576000841561383f5750858301515b600019600386901b1c1916600185901b1785556137ec565b600085815260208120601f198616915b8281101561388657888601518255948401946001909101908401613867565b50858210156138a45787850151600019600388901b60f8161c191681555b5050505050600190811b01905550565b6040815260006138c760408301856131d6565b90508260208301529392505050565b60208082526025908201527f4552433732313a207472616e736665722066726f6d20696e636f72726563742060408201526437bbb732b960d91b606082015260800190565b60006020828403121561392d57600080fd5b5051919050565b6020808252602b908201527f496e697469616c697a61626c653a20636f6e7472616374206973206e6f74206960408201526a6e697469616c697a696e6760a81b606082015260800190565b60208082526032908201527f4552433732313a207472616e7366657220746f206e6f6e20455243373231526560408201527131b2b4bb32b91034b6b83632b6b2b73a32b960711b606082015260800190565b600083516139e38184602088016131b2565b8351908301906139f78183602088016131b2565b01949350505050565b7f416363657373436f6e74726f6c3a206163636f756e7420000000000000000000815260008351613a388160178501602088016131b2565b7001034b99036b4b9b9b4b733903937b6329607d1b6017918401918201528351613a698160288401602088016131b2565b01602801949350505050565b6001600160a01b0385811682528416602082015260408101839052608060608201819052600090612fb1908301846131d6565b600060208284031215613aba57600080fd5b815161270c8161317f565b80820281158282048414176107b8576107b8613777565b808201808211156107b8576107b8613777565b600081613afe57613afe613777565b506000190190565b818103818111156107b8576107b8613777565b634e487b7160e01b600052603160045260246000fd5b60008251613b418184602087016131b2565b919091019291505056fe360894a13ba1a3210667c828492db98dca3e2076cc3735a920a3ca505d382bbc97667070c54ef182b0f5858b034beac1b6f3089aa2d3188bb1e8929f4fa9b929416464726573733a206c6f772d6c6576656c2064656c65676174652063616c6c206661696c6564a26469706673582212209b656179f33d2195fe593f521c411f35c0f204296cd15254be0f5473e3dc4f7264736f6c63430008140033",
  "linkReferences": {},
  "deployedLinkReferences": {}
}