{
  "_format": "hh-sol-artifact-1",
  "contractName": "KYCRegistry",
  "sourceName": "contracts/KYCRegistry.sol",
  "abi": [
    {
      "inputs": [],
      "stateMutability": "nonpayable",
      "type": "constructor"
    },
    {
      "anonymous": false,
      "inputs": [
        {
          "indexed": false,
          "internalType": "address",
          "name": "previousAdmin",
          "type": "address"
        },
        {
          "indexed": false,
          "internalType": "address",
          "name": "newAdmin",
          "type": "address"
        }
      ],
      "name": "AdminChanged",
      "type": "event"
    },
    {
      "anonymous": false,
      "inputs": [
        {
          "indexed": true,
          "internalType": "address",
          "name": "beacon",
          "type": "address"
        }
      ],
      "name": "BeaconUpgraded",
      "type": "event"
    },
    {
      "anonymous": false,
      "inputs": [
        {
          "indexed": true,
          "internalType": "string",
          "name": "countryCode",
          "type": "string"
        },
        {
          "indexed": false,
          "internalType": "bool",
          "name": "restricted",
          "type": "bool"
        }
      ],
      "name": "CountryRestricted",
      "type": "event"
    },
    {
      "anonymous": false,
      "inputs": [
        {
          "indexed": false,
          "internalType": "uint8",
          "name": "version",
          "type": "uint8"
        }
      ],
      "name": "Initialized",
      "type": "event"
    },
    {
      "anonymous": false,
      "inputs": [
        {
          "indexed": false,
          "internalType": "address",
          "name": "account",
          "type": "address"
        }
      ],
      "name": "Paused",
      "type": "event"
    },
    {
      "anonymous": false,
      "inputs": [
        {
          "indexed": true,
          "internalType": "address",
          "name": "user",
          "type": "address"
        },
        {
          "indexed": false,
          "internalType": "enum KYCRegistry.RiskLevel",
          "name": "oldLevel",
          "type": "uint8"
        },
        {
          "indexed": false,
          "internalType": "enum KYCRegistry.RiskLevel",
          "name": "newLevel",
          "type": "uint8"
        }
      ],
      "name": "RiskLevelUpdated",
      "type": "event"
    },
    {
      "anonymous": false,
      "inputs": [
        {
          "indexed": true,
          "internalType": "bytes32",
          "name": "role",
          "type": "bytes32"
        },
        {
          "indexed": true,
          "internalType": "bytes32",
          "name": "previousAdminRole",
          "type": "bytes32"
        },
        {
          "indexed": true,
          "internalType": "bytes32",
          "name": "newAdminRole",
          "type": "bytes32"
        }
      ],
      "name": "RoleAdminChanged",
      "type": "event"
    },
    {
      "anonymous": false,
      "inputs": [
        {
          "indexed": true,
          "internalType": "bytes32",
          "name": "role",
          "type": "bytes32"
        },
        {
          "indexed": true,
          "internalType": "address",
          "name": "account",
          "type": "address"
        },
        {
          "indexed": true,
          "internalType": "address",
          "name": "sender",
          "type": "address"
        }
      ],
      "name": "RoleGranted",
      "type": "event"
    },
    {
      "anonymous": false,
      "inputs": [
        {
          "indexed": true,
          "internalType": "bytes32",
          "name": "role",
          "type": "bytes32"
        },
        {
          "indexed": true,
          "internalType": "address",
          "name": "account",
          "type": "address"
        },
        {
          "indexed": true,
          "internalType": "address",
          "name": "sender",
          "type": "address"
        }
      ],
      "name": "RoleRevoked",
      "type": "event"
    },
    {
      "anonymous": false,
      "inputs": [
        {
          "indexed": true,
          "internalType": "address",
          "name": "user",
          "type": "address"
        },
        {
          "indexed": false,
          "internalType": "bool",
          "name": "isSanctioned",
          "type": "bool"
        }
      ],
      "name": "SanctionStatusUpdated",
      "type": "event"
    },
    {
      "anonymous": false,
      "inputs": [
        {
          "indexed": true,
          "internalType": "address",
          "name": "user",
          "type": "address"
        },
        {
          "indexed": false,
          "internalType": "uint256",
          "name": "oldLimit",
          "type": "uint256"
        },
        {
          "indexed": false,
          "internalType": "uint256",
          "name": "newLimit",
          "type": "uint256"
        }
      ],
      "name": "TransactionLimitUpdated",
      "type": "event"
    },
    {
      "anonymous": false,
      "inputs": [
        {
          "indexed": false,
          "internalType": "address",
          "name": "account",
          "type": "address"
        }
      ],
      "name": "Unpaused",
      "type": "event"
    },
    {
      "anonymous": false,
      "inputs": [
        {
          "indexed": true,
          "internalType": "address",
          "name": "implementation",
          "type": "address"
        }
      ],
      "name": "Upgraded",
      "type": "event"
    },
    {
      "anonymous": false,
      "inputs": [
        {
          "indexed": true,
          "internalType": "address",
          "name": "user",
          "type": "address"
        },
        {
          "indexed": true,
          "internalType": "address",
          "name": "verifier",
          "type": "address"
        },
        {
          "indexed": false,
          "internalType": "uint256",
          "name": "expiresAt",
          "type": "uint256"
        }
      ],
      "name": "UserVerified",
      "type": "event"
    },
    {
      "anonymous": false,
      "inputs": [
        {
          "indexed": true,
          "internalType": "address",
          "name": "user",
          "type": "address"
        },
        {
          "indexed": true,
          "internalType": "address",
          "name": "revoker",
          "type": "address"
        }
      ],
      "name": "VerificationRevoked",
      "type": "event"
    },
    {
      "inputs": [],
      "name": "DEFAULT_ADMIN_ROLE",
      "outputs": [
        {
          "internalType": "bytes32",
          "name": "",
          "type": "bytes32"
        }
      ],
      "stateMutability": "view",
      "type": "function"
    },
    {
      "inputs": [],
      "name": "UPGRADER_ROLE",
      "outputs": [
        {
          "internalType": "bytes32",
          "name": "",
          "type": "bytes32"
        }
      ],
      "stateMutability": "view",
      "type": "function"
    },
    {
      "inputs": [],
      "name": "VERIFIER_ROLE",
      "outputs": [
        {
          "internalType": "bytes32",
          "name": "",
          "type": "bytes32"
        }
      ],
      "stateMutability": "view",
      "type": "function"
    },
    {
      "inputs": [
        {
          "internalType": "address[]",
          "name": "users",
          "type": "address[]"
        },
        {
          "internalType": "string[]",
          "name": "documentHashes",
          "type": "string[]"
        },
        {
          "internalType": "enum KYCRegistry.RiskLevel[]",
          "name": "riskLevels",
          "type": "uint8[]"
        },
        {
          "internalType": "uint256[]",
          "name": "expiresAt",
          "type": "uint256[]"
        },
        {
          "internalType": "uint256[]",
          "name": "transactionLimits",
          "type": "uint256[]"
        }
      ],
      "name": "batchVerifyUsers",
      "outputs": [],
      "stateMutability": "nonpayable",
      "type": "function"
    },
    {
      "inputs": [
        {
          "internalType": "address",
          "name": "user",
          "type": "address"
        },
        {
          "internalType": "uint256",
          "name": "amount",
          "type": "uint256"
        }
      ],
      "name": "canTransact",
      "outputs": [
        {
          "internalType": "bool",
          "name": "",
          "type": "bool"
        }
      ],
      "stateMutability": "view",
      "type": "function"
    },
    {
      "inputs": [
        {
          "internalType": "bytes32",
          "name": "role",
          "type": "bytes32"
        }
      ],
      "name": "getRoleAdmin",
      "outputs": [
        {
          "internalType": "bytes32",
          "name": "",
          "type": "bytes32"
        }
      ],
      "stateMutability": "view",
      "type": "function"
    },
    {
      "inputs": [
        {
          "internalType": "address",
          "name": "user",
          "type": "address"
        }
      ],
      "name": "getUserKYC",
      "outputs": [
        {
          "components": [
            {
              "internalType": "bool",
              "name": "isVerified",
              "type": "bool"
            },
            {
              "internalType": "enum KYCRegistry.RiskLevel",
              "name": "riskLevel",
              "type": "uint8"
            },
            {
              "internalType": "uint256",
              "name": "verifiedAt",
              "type": "uint256"
            },
            {
              "internalType": "uint256",
              "name": "expiresAt",
              "type": "uint256"
            },
            {
              "internalType": "address",
              "name": "verifier",
              "type": "address"
            },
            {
              "internalType": "string",
              "name": "documentHash",
              "type": "string"
            },
            {
              "internalType": "uint256",
              "name": "transactionLimit",
              "type": "uint256"
            }
          ],
          "internalType": "struct KYCRegistry.KYCData",
          "name": "",
          "type": "tuple"
        }
      ],
      "stateMutability": "view",
      "type": "function"
    },
    {
      "inputs": [
        {
          "internalType": "bytes32",
          "name": "role",
          "type": "bytes32"
        },
        {
          "internalType": "address",
          "name": "account",
          "type": "address"
        }
      ],
      "name": "grantRole",
      "outputs": [],
      "stateMutability": "nonpayable",
      "type": "function"
    },
    {
      "inputs": [
        {
          "internalType": "bytes32",
          "name": "role",
          "type": "bytes32"
        },
        {
          "internalType": "address",
          "name": "account",
          "type": "address"
        }
      ],
      "name": "hasRole",
      "outputs": [
        {
          "internalType": "bool",
          "name": "",
          "type": "bool"
        }
      ],
      "stateMutability": "view",
      "type": "function"
    },
    {
      "inputs": [],
      "name": "initialize",
      "outputs": [],
      "stateMutability": "nonpayable",
      "type": "function"
    },
    {
      "inputs": [
        {
          "internalType": "address",
          "name": "",
          "type": "address"
        }
      ],
      "name": "isSanctioned",
      "outputs": [
        {
          "internalType": "bool",
          "name": "",
          "type": "bool"
        }
      ],
      "stateMutability": "view",
      "type": "function"
    },
    {
      "inputs": [
        {
          "internalType": "address",
          "name": "user",
          "type": "address"
        }
      ],
      "name": "isVerified",
      "outputs": [
        {
          "internalType": "bool",
          "name": "",
          "type": "bool"
        }
      ],
      "stateMutability": "view",
      "type": "function"
    },
    {
      "inputs": [
        {
          "internalType": "address",
          "name": "",
          "type": "address"
        }
      ],
      "name": "kycData",
      "outputs": [
        {
          "internalType": "bool",
          "name": "isVerified",
          "type": "bool"
        },
        {
          "internalType": "enum KYCRegistry.RiskLevel",
          "name": "riskLevel",
          "type": "uint8"
        },
        {
          "internalType": "uint256",
          "name": "verifiedAt",
          "type": "uint256"
        },
        {
          "internalType": "uint256",
          "name": "expiresAt",
          "type": "uint256"
        },
        {
          "internalType": "address",
          "name": "verifier",
          "type": "address"
        },
        {
          "internalType": "string",
          "name": "documentHash",
          "type": "string"
        },
        {
          "internalType": "uint256",
          "name": "transactionLimit",
          "type": "uint256"
        }
      ],
      "stateMutability": "view",
      "type": "function"
    },
    {
      "inputs": [],
      "name": "pause",
      "outputs": [],
      "stateMutability": "nonpayable",
      "type": "function"
    },
    {
      "inputs": [],
      "name": "paused",
      "outputs": [
        {
          "internalType": "bool",
          "name": "",
          "type": "bool"
        }
      ],
      "stateMutability": "view",
      "type": "function"
    },
    {
      "inputs": [],
      "name": "proxiableUUID",
      "outputs": [
        {
          "internalType": "bytes32",
          "name": "",
          "type": "bytes32"
        }
      ],
      "stateMutability": "view",
      "type": "function"
    },
    {
      "inputs": [
        {
          "internalType": "bytes32",
          "name": "role",
          "type": "bytes32"
        },
        {
          "internalType": "address",
          "name": "account",
          "type": "address"
        }
      ],
      "name": "renounceRole",
      "outputs": [],
      "stateMutability": "nonpayable",
      "type": "function"
    },
    {
      "inputs": [
        {
          "internalType": "string",
          "name": "",
          "type": "string"
        }
      ],
      "name": "restrictedCountries",
      "outputs": [
        {
          "internalType": "bool",
          "name": "",
          "type": "bool"
        }
      ],
      "stateMutability": "view",
      "type": "function"
    },
    {
      "inputs": [
        {
          "internalType": "bytes32",
          "name": "role",
          "type": "bytes32"
        },
        {
          "internalType": "address",
          "name": "account",
          "type": "address"
        }
      ],
      "name": "revokeRole",
      "outputs": [],
      "stateMutability": "nonpayable",
      "type": "function"
    },
    {
      "inputs": [
        {
          "internalType": "address",
          "name": "user",
          "type": "address"
        }
      ],
      "name": "revokeVerification",
      "outputs": [],
      "stateMutability": "nonpayable",
      "type": "function"
    },
    {
      "inputs": [
        {
          "internalType": "string",
          "name": "countryCode",
          "type": "string"
        },
        {
          "internalType": "bool",
          "name": "restricted",
          "type": "bool"
        }
      ],
      "name": "setCountryRestriction",
      "outputs": [],
      "stateMutability": "nonpayable",
      "type": "function"
    },
    {
      "inputs": [
        {
          "internalType": "bytes4",
          "name": "interfaceId",
          "type": "bytes4"
        }
      ],
      "name": "supportsInterface",
      "outputs": [
        {
          "internalType": "bool",
          "name": "",
          "type": "bool"
        }
      ],
      "stateMutability": "view",
      "type": "function"
    },
    {
      "inputs": [],
      "name": "unpause",
      "outputs": [],
      "stateMutability": "nonpayable",
      "type": "function"
    },
    {
      "inputs": [
        {
          "internalType": "address",
          "name": "user",
          "type": "address"
        },
        {
          "internalType": "enum KYCRegistry.RiskLevel",
          "name": "newLevel",
          "type": "uint8"
        }
      ],
      "name": "updateRiskLevel",
      "outputs": [],
      "stateMutability": "nonpayable",
      "type": "function"
    },
    {
      "inputs": [
        {
          "internalType": "address",
          "name": "user",
          "type": "address"
        },
        {
          "internalType": "bool",
          "name": "sanctioned",
          "type": "bool"
        }
      ],
      "name": "updateSanctionStatus",
      "outputs": [],
      "stateMutability": "nonpayable",
      "type": "function"
    },
    {
      "inputs": [
        {
          "internalType": "address",
          "name": "user",
          "type": "address"
        },
        {
          "internalType": "uint256",
          "name": "newLimit",
          "type": "uint256"
        }
      ],
      "name": "updateTransactionLimit",
      "outputs": [],
      "stateMutability": "nonpayable",
      "type": "function"
    },
    {
      "inputs": [
        {
          "internalType": "address",
          "name": "newImplementation",
          "type": "address"
        }
      ],
      "name": "upgradeTo",
      "outputs": [],
      "stateMutability": "nonpayable",
      "type": "function"
    },
    {
      "inputs": [
        {
          "internalType": "address",
          "name": "newImplementation",
          "type": "address"
        },
        {
          "internalType": "bytes",
          "name": "data",
          "type": "bytes"
        }
      ],
      "name": "upgradeToAndCall",
      "outputs": [],
      "stateMutability": "payable",
      "type": "function"
    },
    {
      "inputs": [
        {
          "internalType": "string",
          "name": "",
          "type": "string"
        }
      ],
      "name": "usedDocumentHashes",
      "outputs": [
        {
          "internalType": "bool",
          "name": "",
          "type": "bool"
        }
      ],
      "stateMutability": "view",
      "type": "function"
    },
    {
      "inputs": [
        {
          "internalType": "address",
          "name": "user",
          "type": "address"
        },
        {
          "internalType": "string",
          "name": "documentHash",
          "type": "string"
        },
        {
          "internalType": "enum KYCRegistry.RiskLevel",
          "name": "riskLevel",
          "type": "uint8"
        },
        {
          "internalType": "uint256",
          "name": "expiresAt",
          "type": "uint256"
        },
        {
          "internalType": "uint256",
          "name": "transactionLimit",
          "type": "uint256"
        }
      ],
      "name": "verifyUser",
      "outputs": [],
      "stateMutability": "nonpayable",
      "type": "function"
    }
  ],
  "bytecode": "0x60a0604052306080523480156200001557600080fd5b506200002062000026565b620000e7565b600054610100900460ff1615620000935760405162461bcd60e51b815260206004820152602760248201527f496e697469616c697a61626c653a20636f6e747261637420697320696e697469604482015266616c697a696e6760c81b606482015260840160405180910390fd5b60005460ff90811614620000e5576000805460ff191660ff9081179091556040519081527f7f26b83ff96e1f2b6a682f133852f6798a09c465da95921460cefb38474024989060200160405180910390a15b565b608051612d7d6200011f600039600081816108dd0152818161091d015281816109cf01528181610a0f0152610a9e0152612d7d6000f3fe6080604052600436106101cd5760003560e01c80638456cb59116100f7578063be4a731b11610095578063e69c81a111610064578063e69c81a114610564578063e7705db614610584578063e998d2fa146105a6578063f72c0d8b146105c657600080fd5b8063be4a731b146104d3578063d547741f146104f3578063d5c03cc914610513578063df592f7d1461053357600080fd5b8063adff39f6116100d1578063adff39f614610437578063b0751fa114610457578063b10c3b4014610477578063b9209e33146104b357600080fd5b80638456cb59146103ed57806391d1485414610402578063a217fddf1461042257600080fd5b80633659cfe61161016f5780635c975abb1161013e5780635c975abb1461037357806372515b031461038b5780638129fc1c146103b857806382181e7e146103cd57600080fd5b80633659cfe6146103165780633f4ba83a146103365780634f1ef2861461034b57806352d1902d1461035e57600080fd5b8063248a9ca3116101ab578063248a9ca3146102765780632929be2a146102b45780632f2ff15d146102d657806336568abe146102f657600080fd5b806301ffc9a7146101d2578063076f3565146102075780631431288a1461023a575b600080fd5b3480156101de57600080fd5b506101f26101ed3660046121d7565b6105fa565b60405190151581526020015b60405180910390f35b34801561021357600080fd5b5061022761022236600461221d565b610631565b6040516101fe97969594939291906122c0565b34801561024657600080fd5b506101f26102553660046123d5565b80516020818301810180516101308252928201919093012091525460ff1681565b34801561028257600080fd5b506102a661029136600461240a565b60009081526065602052604090206001015490565b6040519081526020016101fe565b3480156102c057600080fd5b506102d46102cf366004612432565b610705565b005b3480156102e257600080fd5b506102d46102f1366004612465565b61082b565b34801561030257600080fd5b506102d4610311366004612465565b610855565b34801561032257600080fd5b506102d461033136600461221d565b6108d3565b34801561034257600080fd5b506102d46109b2565b6102d4610359366004612488565b6109c5565b34801561036a57600080fd5b506102a6610a91565b34801561037f57600080fd5b5060975460ff166101f2565b34801561039757600080fd5b506103ab6103a636600461221d565b610b44565b6040516101fe91906124ea565b3480156103c457600080fd5b506102d4610cbe565b3480156103d957600080fd5b506102d46103e8366004612735565b610e2b565b3480156103f957600080fd5b506102d4610f7f565b34801561040e57600080fd5b506101f261041d366004612465565b610f92565b34801561042e57600080fd5b506102a6600081565b34801561044357600080fd5b506102d4610452366004612817565b610fbd565b34801561046357600080fd5b506102d4610472366004612841565b611095565b34801561048357600080fd5b506101f26104923660046123d5565b805160208183018101805161012f8252928201919093012091525460ff1681565b3480156104bf57600080fd5b506101f26104ce36600461221d565b61141c565b3480156104df57600080fd5b506102d46104ee3660046128b1565b6115a8565b3480156104ff57600080fd5b506102d461050e366004612465565b611654565b34801561051f57600080fd5b506101f261052e3660046128b1565b611679565b34801561053f57600080fd5b506101f261054e36600461221d565b61012e6020526000908152604090205460ff1681565b34801561057057600080fd5b506102d461057f3660046128db565b61182a565b34801561059057600080fd5b506102a6600080516020612d2883398151915281565b3480156105b257600080fd5b506102d46105c136600461221d565b6118ac565b3480156105d257600080fd5b506102a67f189ab7a9244df0848122154315af71fe140f3db0fe014031783b0946b8c9d2e381565b60006001600160e01b03198216637965db0b60e01b148061062b57506301ffc9a760e01b6001600160e01b03198316145b92915050565b61012d602052600090815260409020805460018201546002830154600384015460048501805460ff8087169761010090970416956001600160a01b0390931692919061067c90612920565b80601f01602080910402602001604051908101604052809291908181526020018280546106a890612920565b80156106f55780601f106106ca576101008083540402835291602001916106f5565b820191906000526020600020905b8154815290600101906020018083116106d857829003601f168201915b5050505050908060050154905087565b600080516020612d2883398151915261071d81611951565b6001600160a01b038316600090815261012d602052604090205460ff1661075f5760405162461bcd60e51b81526004016107569061295a565b60405180910390fd5b6001600160a01b038316600090815261012d60205260409020805461010080820460ff16928592909161ff0019909116908360048111156107a2576107a2612238565b021790555060048360048111156107bb576107bb612238565b036107e2576001600160a01b038416600090815261012d60205260409020805460ff191690555b836001600160a01b03167fc934f665859729483f417826d0dbb2dd5c1c2ff574f2566ac21695e657556e13828560405161081d929190612991565b60405180910390a250505050565b60008281526065602052604090206001015461084681611951565b610850838361195b565b505050565b6001600160a01b03811633146108c55760405162461bcd60e51b815260206004820152602f60248201527f416363657373436f6e74726f6c3a2063616e206f6e6c792072656e6f756e636560448201526e103937b632b9903337b91039b2b63360891b6064820152608401610756565b6108cf82826119e1565b5050565b6001600160a01b037f000000000000000000000000000000000000000000000000000000000000000016300361091b5760405162461bcd60e51b8152600401610756906129ac565b7f00000000000000000000000000000000000000000000000000000000000000006001600160a01b0316610964600080516020612ce1833981519152546001600160a01b031690565b6001600160a01b03161461098a5760405162461bcd60e51b8152600401610756906129f8565b61099381611a48565b604080516000808252602082019092526109af91839190611a72565b50565b60006109bd81611951565b6109af611bdd565b6001600160a01b037f0000000000000000000000000000000000000000000000000000000000000000163003610a0d5760405162461bcd60e51b8152600401610756906129ac565b7f00000000000000000000000000000000000000000000000000000000000000006001600160a01b0316610a56600080516020612ce1833981519152546001600160a01b031690565b6001600160a01b031614610a7c5760405162461bcd60e51b8152600401610756906129f8565b610a8582611a48565b6108cf82826001611a72565b6000306001600160a01b037f00000000000000000000000000000000000000000000000000000000000000001614610b315760405162461bcd60e51b815260206004820152603860248201527f555550535570677261646561626c653a206d757374206e6f742062652063616c60448201527f6c6564207468726f7567682064656c656761746563616c6c00000000000000006064820152608401610756565b50600080516020612ce183398151915290565b610b8e6040805160e08101909152600080825260208201908152602001600081526020016000815260200160006001600160a01b0316815260200160608152602001600081525090565b6001600160a01b038216600090815261012d6020908152604091829020825160e08101909352805460ff808216151585529192840191610100909104166004811115610bdc57610bdc612238565b6004811115610bed57610bed612238565b8152600182015460208201526002820154604082015260038201546001600160a01b03166060820152600482018054608090920191610c2b90612920565b80601f0160208091040260200160405190810160405280929190818152602001828054610c5790612920565b8015610ca45780601f10610c7957610100808354040283529160200191610ca4565b820191906000526020600020905b815481529060010190602001808311610c8757829003601f168201915b505050505081526020016005820154815250509050919050565b600054610100900460ff1615808015610cde5750600054600160ff909116105b80610cf85750303b158015610cf8575060005460ff166001145b610d5b5760405162461bcd60e51b815260206004820152602e60248201527f496e697469616c697a61626c653a20636f6e747261637420697320616c72656160448201526d191e481a5b9a5d1a585b1a5e995960921b6064820152608401610756565b6000805460ff191660011790558015610d7e576000805461ff0019166101001790555b610d86611c2f565b610d8e611c58565b610d96611c2f565b610da160003361195b565b610db9600080516020612d288339815191523361195b565b610de37f189ab7a9244df0848122154315af71fe140f3db0fe014031783b0946b8c9d2e33361195b565b80156109af576000805461ff0019169055604051600181527f7f26b83ff96e1f2b6a682f133852f6798a09c465da95921460cefb38474024989060200160405180910390a150565b600080516020612d28833981519152610e4381611951565b610e4b611c87565b84518651148015610e5d575083518651145b8015610e6a575082518651145b8015610e77575081518651145b610ece5760405162461bcd60e51b815260206004820152602260248201527f4b594352656769737472793a204172726179206c656e677468206d69736d61746044820152610c6d60f31b6064820152608401610756565b60005b8651811015610f7657610f64878281518110610eef57610eef612a44565b6020026020010151878381518110610f0957610f09612a44565b6020026020010151878481518110610f2357610f23612a44565b6020026020010151878581518110610f3d57610f3d612a44565b6020026020010151878681518110610f5757610f57612a44565b6020026020010151611095565b80610f6e81612a70565b915050610ed1565b50505050505050565b6000610f8a81611951565b6109af611ccd565b60009182526065602090815260408084206001600160a01b0393909316845291905290205460ff1690565b600080516020612d28833981519152610fd581611951565b6001600160a01b038316600090815261012e60205260409020805460ff19168315801591909117909155829061102457506001600160a01b038316600090815261012d602052604090205460ff165b1561104b576001600160a01b038316600090815261012d60205260409020805460ff191690555b826001600160a01b03167fb6c88b01edcf07a00f234fcab5b79bad6b626ee0fcb3b0546509b3ec780a64e083604051611088911515815260200190565b60405180910390a2505050565b600080516020612d288339815191526110ad81611951565b6110b5611c87565b6001600160a01b03861661110b5760405162461bcd60e51b815260206004820152601c60248201527f4b594352656769737472793a20496e76616c69642061646472657373000000006044820152606401610756565b60008551116111685760405162461bcd60e51b815260206004820152602360248201527f4b594352656769737472793a20446f63756d656e7420686173682072657175696044820152621c995960ea1b6064820152608401610756565b61012f856040516111799190612a89565b9081526040519081900360200190205460ff16156111e95760405162461bcd60e51b815260206004820152602760248201527f4b594352656769737472793a20446f63756d656e74206861736820616c726561604482015266191e481d5cd95960ca1b6064820152608401610756565b4283116112385760405162461bcd60e51b815260206004820152601f60248201527f4b594352656769737472793a20496e76616c69642065787069726174696f6e006044820152606401610756565b6001600160a01b038616600090815261012e602052604090205460ff16156112a25760405162461bcd60e51b815260206004820152601f60248201527f4b594352656769737472793a20557365722069732073616e6374696f6e6564006044820152606401610756565b6040518060e001604052806001151581526020018560048111156112c8576112c8612238565b81524260208083019190915260408083018790523360608401526080830189905260a09092018590526001600160a01b038916600090815261012d8252919091208251815490151560ff19821681178355928401519192839161ff001990911661ffff199091161761010083600481111561134557611345612238565b0217905550604082015160018201556060820151600282015560808201516003820180546001600160a01b0319166001600160a01b0390921691909117905560a082015160048201906113989082612af3565b5060c08201518160050155905050600161012f866040516113b99190612a89565b90815260405160209181900382018120805460ff19169315159390931790925584825233916001600160a01b038916917fca739c98735a52e52685f44327b0acc68ac17711fd794f6009992aaabfb4b143910160405180910390a3505050505050565b6001600160a01b038116600090815261012d60209081526040808320815160e08101909252805460ff808216151584528594840191610100900416600481111561146857611468612238565b600481111561147957611479612238565b8152600182015460208201526002820154604082015260038201546001600160a01b031660608201526004820180546080909201916114b790612920565b80601f01602080910402602001604051908101604052809291908181526020018280546114e390612920565b80156115305780601f1061150557610100808354040283529160200191611530565b820191906000526020600020905b81548152906001019060200180831161151357829003601f168201915b505050505081526020016005820154815250509050806000015180156115595750428160600151115b801561157f57506001600160a01b038316600090815261012e602052604090205460ff16155b80156115a1575060048160200151600481111561159e5761159e612238565b14155b9392505050565b600080516020612d288339815191526115c081611951565b6001600160a01b038316600090815261012d602052604090205460ff166115f95760405162461bcd60e51b81526004016107569061295a565b6001600160a01b038316600081815261012d6020908152604091829020600501805490869055825181815291820186905292917f7b99fd8f66d8959245de91d812028bbabc5d3f3e5a3df445893ba0b90c9b8a2f910161081d565b60008281526065602052604090206001015461166f81611951565b61085083836119e1565b60006116848361141c565b6116905750600061062b565b6001600160a01b038316600090815261012d60209081526040808320815160e08101909252805460ff8082161515845292939192918401916101009091041660048111156116e0576116e0612238565b60048111156116f1576116f1612238565b8152600182015460208201526002820154604082015260038201546001600160a01b0316606082015260048201805460809092019161172f90612920565b80601f016020809104026020016040519081016040528092919081815260200182805461175b90612920565b80156117a85780601f1061177d576101008083540402835291602001916117a8565b820191906000526020600020905b81548152906001019060200180831161178b57829003601f168201915b50505050508152602001600582015481525050905060008160c001511180156117d457508060c0015183115b156117e357600091505061062b565b6003816020015160048111156117fb576117fb612238565b148015611811575069021e19e0c9bab240000083115b1561182057600091505061062b565b5060019392505050565b600061183581611951565b81610130846040516118479190612a89565b908152604051908190036020018120805492151560ff1990931692909217909155611873908490612a89565b6040519081900381208315158252907f79c50b3c4a9dae5db9637b66e9d6219108beaa84a0067b3314ba024d21d5685490602001611088565b600080516020612d288339815191526118c481611951565b6001600160a01b038216600090815261012d602052604090205460ff166118fd5760405162461bcd60e51b81526004016107569061295a565b6001600160a01b038216600081815261012d6020526040808220805460ff1916815542600290910155513392917f22ff857ce664c4d31b473cf4a8e45de08f4a5a1a23872143d6c914a7b013e26091a35050565b6109af8133611d0a565b6119658282610f92565b6108cf5760008281526065602090815260408083206001600160a01b03851684529091529020805460ff1916600117905561199d3390565b6001600160a01b0316816001600160a01b0316837f2f8788117e7eff1d82e926ec794901d17c78024a50270940304540a733656f0d60405160405180910390a45050565b6119eb8282610f92565b156108cf5760008281526065602090815260408083206001600160a01b0385168085529252808320805460ff1916905551339285917ff6391f5c32d9c69d2a47ea670b442974b53935d1edc7fd64eb21e047a839171b9190a45050565b7f189ab7a9244df0848122154315af71fe140f3db0fe014031783b0946b8c9d2e36108cf81611951565b7f4910fdfa16fed3260ed0e7147f7cc6da11a60208b5b9406d12a635614ffd91435460ff1615611aa55761085083611d63565b826001600160a01b03166352d1902d6040518163ffffffff1660e01b8152600401602060405180830381865afa925050508015611aff575060408051601f3d908101601f19168201909252611afc91810190612bb3565b60015b611b625760405162461bcd60e51b815260206004820152602e60248201527f45524331393637557067726164653a206e657720696d706c656d656e7461746960448201526d6f6e206973206e6f74205555505360901b6064820152608401610756565b600080516020612ce18339815191528114611bd15760405162461bcd60e51b815260206004820152602960248201527f45524331393637557067726164653a20756e737570706f727465642070726f786044820152681a58589b195555525160ba1b6064820152608401610756565b50610850838383611dff565b611be5611e2a565b6097805460ff191690557f5db9ee0a495bf2e6ff9c91a7834c1ba4fdd244a5e8aa4e537bd38aeae4b073aa335b6040516001600160a01b03909116815260200160405180910390a1565b600054610100900460ff16611c565760405162461bcd60e51b815260040161075690612bcc565b565b600054610100900460ff16611c7f5760405162461bcd60e51b815260040161075690612bcc565b611c56611e73565b60975460ff1615611c565760405162461bcd60e51b815260206004820152601060248201526f14185d5cd8589b194e881c185d5cd95960821b6044820152606401610756565b611cd5611c87565b6097805460ff191660011790557f62e78cea01bee320cd4e420270b5ea74000d11b0c9f74754ebdbfc544b05a258611c123390565b611d148282610f92565b6108cf57611d2181611ea6565b611d2c836020611eb8565b604051602001611d3d929190612c17565b60408051601f198184030181529082905262461bcd60e51b825261075691600401612c8c565b6001600160a01b0381163b611dd05760405162461bcd60e51b815260206004820152602d60248201527f455243313936373a206e657720696d706c656d656e746174696f6e206973206e60448201526c1bdd08184818dbdb9d1c9858dd609a1b6064820152608401610756565b600080516020612ce183398151915280546001600160a01b0319166001600160a01b0392909216919091179055565b611e0883612054565b600082511180611e155750805b1561085057611e248383612094565b50505050565b60975460ff16611c565760405162461bcd60e51b815260206004820152601460248201527314185d5cd8589b194e881b9bdd081c185d5cd95960621b6044820152606401610756565b600054610100900460ff16611e9a5760405162461bcd60e51b815260040161075690612bcc565b6097805460ff19169055565b606061062b6001600160a01b03831660145b60606000611ec7836002612c9f565b611ed2906002612cb6565b67ffffffffffffffff811115611eea57611eea612316565b6040519080825280601f01601f191660200182016040528015611f14576020820181803683370190505b509050600360fc1b81600081518110611f2f57611f2f612a44565b60200101906001600160f81b031916908160001a905350600f60fb1b81600181518110611f5e57611f5e612a44565b60200101906001600160f81b031916908160001a9053506000611f82846002612c9f565b611f8d906001612cb6565b90505b6001811115612005576f181899199a1a9b1b9c1cb0b131b232b360811b85600f1660108110611fc157611fc1612a44565b1a60f81b828281518110611fd757611fd7612a44565b60200101906001600160f81b031916908160001a90535060049490941c93611ffe81612cc9565b9050611f90565b5083156115a15760405162461bcd60e51b815260206004820181905260248201527f537472696e67733a20686578206c656e67746820696e73756666696369656e746044820152606401610756565b61205d81611d63565b6040516001600160a01b038216907fbc7cd75a20ee27fd9adebab32041f755214dbc6bffa90cc0225b39da2e5c2d3b90600090a250565b60606115a18383604051806060016040528060278152602001612d01602791396060600080856001600160a01b0316856040516120d19190612a89565b600060405180830381855af49150503d806000811461210c576040519150601f19603f3d011682016040523d82523d6000602084013e612111565b606091505b50915091506121228683838761212c565b9695505050505050565b6060831561219b578251600003612194576001600160a01b0385163b6121945760405162461bcd60e51b815260206004820152601d60248201527f416464726573733a2063616c6c20746f206e6f6e2d636f6e74726163740000006044820152606401610756565b50816121a5565b6121a583836121ad565b949350505050565b8151156121bd5781518083602001fd5b8060405162461bcd60e51b81526004016107569190612c8c565b6000602082840312156121e957600080fd5b81356001600160e01b0319811681146115a157600080fd5b80356001600160a01b038116811461221857600080fd5b919050565b60006020828403121561222f57600080fd5b6115a182612201565b634e487b7160e01b600052602160045260246000fd5b6005811061226c57634e487b7160e01b600052602160045260246000fd5b9052565b60005b8381101561228b578181015183820152602001612273565b50506000910152565b600081518084526122ac816020860160208601612270565b601f01601f19169290920160200192915050565b87151581526122d2602082018861224e565b85604082015284606082015260018060a01b038416608082015260e060a0820152600061230260e0830185612294565b90508260c083015298975050505050505050565b634e487b7160e01b600052604160045260246000fd5b604051601f8201601f1916810167ffffffffffffffff8111828210171561235557612355612316565b604052919050565b600067ffffffffffffffff83111561237757612377612316565b61238a601f8401601f191660200161232c565b905082815283838301111561239e57600080fd5b828260208301376000602084830101529392505050565b600082601f8301126123c657600080fd5b6115a18383356020850161235d565b6000602082840312156123e757600080fd5b813567ffffffffffffffff8111156123fe57600080fd5b6121a5848285016123b5565b60006020828403121561241c57600080fd5b5035919050565b80356005811061221857600080fd5b6000806040838503121561244557600080fd5b61244e83612201565b915061245c60208401612423565b90509250929050565b6000806040838503121561247857600080fd5b8235915061245c60208401612201565b6000806040838503121561249b57600080fd5b6124a483612201565b9150602083013567ffffffffffffffff8111156124c057600080fd5b8301601f810185136124d157600080fd5b6124e08582356020840161235d565b9150509250929050565b602081528151151560208201526000602083015161250b604084018261224e565b50604083015160608301526060830151608083015260018060a01b0360808401511660a083015260a083015160e060c084015261254c610100840182612294565b905060c084015160e08401528091505092915050565b600067ffffffffffffffff82111561257c5761257c612316565b5060051b60200190565b600082601f83011261259757600080fd5b813560206125ac6125a783612562565b61232c565b82815260059290921b840181019181810190868411156125cb57600080fd5b8286015b848110156125ed576125e081612201565b83529183019183016125cf565b509695505050505050565b600082601f83011261260957600080fd5b813560206126196125a783612562565b82815260059290921b8401810191818101908684111561263857600080fd5b8286015b848110156125ed57803567ffffffffffffffff81111561265c5760008081fd5b61266a8986838b01016123b5565b84525091830191830161263c565b600082601f83011261268957600080fd5b813560206126996125a783612562565b82815260059290921b840181019181810190868411156126b857600080fd5b8286015b848110156125ed576126cd81612423565b83529183019183016126bc565b600082601f8301126126eb57600080fd5b813560206126fb6125a783612562565b82815260059290921b8401810191818101908684111561271a57600080fd5b8286015b848110156125ed578035835291830191830161271e565b600080600080600060a0868803121561274d57600080fd5b853567ffffffffffffffff8082111561276557600080fd5b61277189838a01612586565b9650602088013591508082111561278757600080fd5b61279389838a016125f8565b955060408801359150808211156127a957600080fd5b6127b589838a01612678565b945060608801359150808211156127cb57600080fd5b6127d789838a016126da565b935060808801359150808211156127ed57600080fd5b506127fa888289016126da565b9150509295509295909350565b8035801515811461221857600080fd5b6000806040838503121561282a57600080fd5b61283383612201565b915061245c60208401612807565b600080600080600060a0868803121561285957600080fd5b61286286612201565b9450602086013567ffffffffffffffff81111561287e57600080fd5b61288a888289016123b5565b94505061289960408701612423565b94979396509394606081013594506080013592915050565b600080604083850312156128c457600080fd5b6128cd83612201565b946020939093013593505050565b600080604083850312156128ee57600080fd5b823567ffffffffffffffff81111561290557600080fd5b612911858286016123b5565b92505061245c60208401612807565b600181811c9082168061293457607f821691505b60208210810361295457634e487b7160e01b600052602260045260246000fd5b50919050565b6020808252601e908201527f4b594352656769737472793a2055736572206e6f742076657269666965640000604082015260600190565b6040810161299f828561224e565b6115a1602083018461224e565b6020808252602c908201527f46756e6374696f6e206d7573742062652063616c6c6564207468726f7567682060408201526b19195b1959d85d1958d85b1b60a21b606082015260800190565b6020808252602c908201527f46756e6374696f6e206d7573742062652063616c6c6564207468726f7567682060408201526b6163746976652070726f787960a01b606082015260800190565b634e487b7160e01b600052603260045260246000fd5b634e487b7160e01b600052601160045260246000fd5b600060018201612a8257612a82612a5a565b5060010190565b60008251612a9b818460208701612270565b9190910192915050565b601f82111561085057600081815260208120601f850160051c81016020861015612acc5750805b601f850160051c820191505b81811015612aeb57828155600101612ad8565b505050505050565b815167ffffffffffffffff811115612b0d57612b0d612316565b612b2181612b1b8454612920565b84612aa5565b602080601f831160018114612b565760008415612b3e5750858301515b600019600386901b1c1916600185901b178555612aeb565b600085815260208120601f198616915b82811015612b8557888601518255948401946001909101908401612b66565b5085821015612ba35787850151600019600388901b60f8161c191681555b5050505050600190811b01905550565b600060208284031215612bc557600080fd5b5051919050565b6020808252602b908201527f496e697469616c697a61626c653a20636f6e7472616374206973206e6f74206960408201526a6e697469616c697a696e6760a81b606082015260800190565b7f416363657373436f6e74726f6c3a206163636f756e7420000000000000000000815260008351612c4f816017850160208801612270565b7001034b99036b4b9b9b4b733903937b6329607d1b6017918401918201528351612c80816028840160208801612270565b01602801949350505050565b6020815260006115a16020830184612294565b808202811582820484141761062b5761062b612a5a565b8082018082111561062b5761062b612a5a565b600081612cd857612cd8612a5a565b50600019019056fe360894a13ba1a3210667c828492db98dca3e2076cc3735a920a3ca505d382bbc416464726573733a206c6f772d6c6576656c2064656c65676174652063616c6c206661696c65640ce23c3e399818cfee81a7ab0880f714e53d7672b08df0fa62f2843416e1ea09a2646970667358221220725ed1267dfad83e9556184404237840da8556eb60f84118bbc2cb8ec85821fd64736f6c63430008140033",
  "linkReferences": {},
  "deployedLinkReferences": {}
}